:020000040000fa
:080000000002040000000000f2
:020000040000fa
:04000800d80200001a
:020000040000fa
:04000c00d802000016
:020000040000fa
:04001000d802000012
:020000040000fa
:04001400d80200000e
:020000040000fa
:04001800d80200000a
:020000040000fa
:04001c00d802000006
:020000040000fa
:04002000d802000002
:020000040000fa
:04002400d8020000fe
:020000040000fa
:04002800d8020000fa
:020000040000fa
:04002c00d8020000f6
:020000040000fa
:04003000d8020000f2
:020000040000fa
:04003400d8020000ee
:020000040000fa
:04003800d8020000ea
:020000040000fa
:04003c00d8020000e6
:020000040000fa
:04004000d8020000e2
:020000040000fa
:04004400d8020000de
:020000040000fa
:04004800d8020000da
:020000040000fa
:04004c00d8020000d6
:020000040000fa
:04005000d8020000d2
:020000040000fa
:04005400d8020000ce
:020000040000fa
:04005800d8020000ca
:020000040000fa
:04005c00d8020000c6
:020000040000fa
:04006000d8020000c2
:020000040000fa
:04006400d8020000be
:020000040000fa
:04006800d8020000ba
:020000040000fa
:04006c00d8020000b6
:020000040000fa
:04007000d8020000b2
:020000040000fa
:04007400d8020000ae
:020000040000fa
:04007800d8020000aa
:020000040000fa
:04007c00d8020000a6
:020000040000fa
:04008000d8020000a2
:020000040000fa
:04008400d80200009e
:020000040000fa
:04008800d80200009a
:020000040000fa
:04008c00d802000096
:020000040000fa
:04009000d802000092
:020000040000fa
:04009400d80200008e
:020000040000fa
:04009800d80200008a
:020000040000fa
:04009c00d802000086
:020000040000fa
:0400a000d802000082
:020000040000fa
:0400a400d80200007e
:020000040000fa
:0400a800d80200007a
:020000040000fa
:0400ac00d802000076
:020000040000fa
:0400b000d802000072
:020000040000fa
:0400b400d80200006e
:020000040000fa
:0400b800d80200006a
:020000040000fa
:0400bc00d802000066
:020000040000fa
:0400c000d802000062
:020000040000fa
:0400c400d80200005e
:020000040000fa
:0400c800d80200005a
:020000040000fa
:0400cc00d802000056
:020000040000fa
:0400d000d802000052
:020000040000fa
:0400d400d80200004e
:020000040000fa
:0400d800d80200004a
:020000040000fa
:0400dc00d802000046
:020000040000fa
:0400e000d802000042
:020000040000fa
:0400e400d80200003e
:020000040000fa
:0400e800d80200003a
:020000040000fa
:0400ec00d802000036
:020000040000fa
:0400f000d802000032
:020000040000fa
:0400f400d80200002e
:020000040000fa
:0400f800d80200002a
:020000040000fa
:0400fc00d802000026
:020000040000fa
:04010000d802000021
:020000040000fa
:04010400d80200001d
:020000040000fa
:04010800d802000019
:020000040000fa
:04010c00d802000015
:020000040000fa
:04011000d802000011
:020000040000fa
:04011400d80200000d
:020000040000fa
:04011800d802000009
:020000040000fa
:04011c00d802000005
:020000040000fa
:04012000d802000001
:020000040000fa
:04012400d8020000fd
:020000040000fa
:04012800d8020000f9
:020000040000fa
:04012c00d8020000f5
:020000040000fa
:04013000d8020000f1
:020000040000fa
:04013400d8020000ed
:020000040000fa
:04013800d8020000e9
:020000040000fa
:04013c00d8020000e5
:020000040000fa
:04014000d8020000e1
:020000040000fa
:04014400d8020000dd
:020000040000fa
:04014800d8020000d9
:020000040000fa
:04014c00d8020000d5
:020000040000fa
:04015000d8020000d1
:020000040000fa
:04015400d8020000cd
:020000040000fa
:04015800d8020000c9
:020000040000fa
:04015c00d8020000c5
:020000040000fa
:04016000d8020000c1
:020000040000fa
:04016400d8020000bd
:020000040000fa
:04020800d802000018
:020000040000fa
:04020c00d802000014
:020000040000fa
:04021000d802000010
:020000040000fa
:04021400d80200000c
:020000040000fa
:04021800d802000008
:020000040000fa
:04021c00d802000004
:020000040000fa
:04022000d802000000
:020000040000fa
:04022400d8020000fc
:020000040000fa
:04022800d8020000f8
:020000040000fa
:04022c00d8020000f4
:020000040000fa
:04023000d8020000f0
:020000040000fa
:04023400d8020000ec
:020000040000fa
:04023800d8020000e8
:020000040000fa
:04023c00d8020000e4
:020000040000fa
:04024000d8020000e0
:020000040000fa
:04024400d8020000dc
:020000040000fa
:04024800d8020000d8
:020000040000fa
:04024c00d8020000d4
:020000040000fa
:04025000d8020000d0
:020000040000fa
:04025400d8020000cc
:020000040000fa
:04025800d8020000c8
:020000040000fa
:04025c00d8020000c4
:020000040000fa
:04026000d8020000c0
:020000040000fa
:04026400d8020000bc
:020000040000fa
:04026800d8020000b8
:020000040000fa
:04026c00d8020000b4
:020000040000fa
:04027000d8020000b0
:020000040000fa
:04027400d8020000ac
:020000040000fa
:04027800d8020000a8
:020000040000fa
:04027c00d8020000a4
:020000040000fa
:04028000d8020000a0
:020000040000fa
:04028400d80200009c
:020000040000fa
:04028800d802000098
:020000040000fa
:04028c00d802000094
:020000040000fa
:04029000d802000090
:020000040000fa
:04029400d80200008c
:020000040000fa
:04029800d802000088
:020000040000fa
:04029c00d802000084
:020000040000fa
:0402a000d802000080
:020000040000fa
:0402a400d80200007c
:020000040000fa
:0402a800d802000078
:020000040000fa
:0402ac00d802000074
:020000040000fa
:0402b000d802000070
:020000040000fa
:0402b400d80200006c
:020000040000fa
:0402b800d802000068
:020000040000fa
:0402bc00d802000064
:020000040000fa
:0402c000d802000060
:020000040000fa
:0402c400d80200005c
:020000040000fa
:0402c800d802000058
:020000040000fa
:0402cc00d802000054
:020000040000fa
:0402d000d802000050
:020000040000fa
:0402d400d80200004c
:020000040000fa
:0402d800d802000048
:020000040000fa
:0402dc00d802000044
:020000040000fa
:0402e000d802000040
:020000040000fa
:0402e400d80200003c
:020000040000fa
:0402e800d802000038
:020000040000fa
:0402ec00d802000034
:020000040000fa
:0402f000d802000030
:020000040000fa
:0402f400d80200002c
:020000040000fa
:0402f800d802000028
:020000040000fa
:0402fc00d802000024
:020000040000fa
:04030000d80200001f
:020000040000fa
:04030400d80200001b
:020000040000fa
:04030800d802000017
:020000040000fa
:04030c00d802000013
:020000040000fa
:04031000d80200000f
:020000040000fa
:04031400d80200000b
:020000040000fa
:04031800d802000007
:020000040000fa
:04031c00d802000003
:020000040000fa
:04032000d8020000ff
:020000040000fa
:04032400d8020000fb
:020000040000fa
:04032800d8020000f7
:020000040000fa
:04032c00d8020000f3
:020000040000fa
:04033000d8020000ef
:020000040000fa
:04033400d8020000eb
:020000040000fa
:04033800d8020000e7
:020000040000fa
:04033c00d8020000e3
:020000040000fa
:04034000d8020000df
:020000040000fa
:04034400d8020000db
:020000040000fa
:04034800d8020000d7
:020000040000fa
:04034c00d8020000d3
:020000040000fa
:04035000d8020000cf
:020000040000fa
:04035400d8020000cb
:020000040000fa
:04035800d8020000c7
:020000040000fa
:04035c00d8020000c3
:020000040000fa
:04036000d8020000bf
:020000040000fa
:04036400d8020000bb
:020000040000fa
:100400000fb020000e3f24000e0188000000000005
:10041000000020000000e000020032000001200087
:100420002002880014000700db0207000000e00043
:1004300003003a00c0da210001002000020037006a
:100440000000200001002000810f70000100320038
:1004500014000700000020000000e000020032004d
:100460000000020000000000dc1b02000000000091
:100470000040da000000fe004440a90020082000ef
:100480000000e0000300320000002000a00188000e
:100490004440a800000006008a1f78008b1f7800e7
:1004a0000000060091018800800478000000eb0045
:1004b0001a003700e284440032a0b4009905ba0063
:1004c000e284440032a0b4009906ba00e2844400f9
:1004d00032a0b4000006eb00476fde00fd07b2005b
:1004e000636ce10003003a00ebff07000000eb0043
:1004f0000a003700606ce10004003a00005deb0088
:100500008b05e900fdff3e00040037006168e10053
:10051000010032000086eb000b00070019c7ba008b
:100520001905ba000e04e00003003a000a00e000da
:10053000e0ff3a0000000600fe07b2009e018800be
:100540008a047800f5ff3700395dba008b05e900b1
:100550000c003200295dba008b05e900080032006a
:100560000c00e00003003a00e284440032a0b40032
:10057000f5ff370019ddba008b05e900faff3a00f4
:100580008904e800e184440032a0b40000000600c1
:100590000e0d040000000000380f040000000000f1
:1005a0000000040000000000e40f04000000000050
:1005b0000040da000000fe000a00fa0011002000ee
:1005c000b1bf9f00c0bf9f006a8057002c09070081
:1005d0004fb897000080fa00000006000a00fa00f9
:1005e000e20f500034003e0050468000e10f500002
:1005f00003003200e20f500011003a000c003700f7
:10060000032220000300e00001003a000040da006d
:100610002002e200020035002822ef0021e2a800bb
:100620002342ab000d003a002342a8000b00370024
:10063000032320000300e00001003a000040da003c
:100640003002e200020035003822ef0031e2a8005b
:100650003342ab0001003a003342a8008201780027
:100660000b0037003102fb00e10f500004003a009c
:100670002322ab00feff3a0024118800030037005c
:100680003322ab00feff3a00a41188008301e90089
:100690000300e000f3ff3a00e10f500003003a00ce
:1006a0002302ab00feff32000b0037003302ab0029
:1006b000feff32000800370033002000b3bf9f0068
:1006c000c0bf9f00d1bf9f00e2bf9f006a8057005c
:1006d000ed0807006fb99700020078000080fa006b
:1006e000000006000a00fa0051002000b1bf9f0080
:1006f000c0bf9f006a805700e50807005fb89700f9
:100700000080fa0000000600889fbe008004780088
:10071000804680000000e00004003a000e00070060
:100720000084eb000000e0000800350088468000ef
:100730000900e0000500320009004400060007003f
:100740000000e00001003d000084eb00080078009c
:100750004f04be0000000600800078000100e000a9
:1007600003003a00000020008046880000000500d9
:100770000080eb0002002000828f500002003e004b
:10078000814688000000eb0000000600f687470065
:10079000889fbe008a9fbe008c9fbe008e1f78007f
:1007a000f1af9f0082047800180020000040dd00b7
:1007b0004f04de00000044000084d100000020004f
:1007c00001f823002b010700ffa89700800878009c
:1007d0000000eb00900098006140b900e5020700be
:1007e0000001be00b0fd2000910424005302070068
:1007f00080057800010578000b0078008a007800f9
:100800004c020700b0b79f00a1b79f000900e000ad
:10081000940032000a01be000300780082007800d4
:10082000d10307000006be000883e90086003300fc
:10083000ffab9700648543008c0478000d047800ba
:10084000bfb597002fb797000b0078008e00780097
:1008500086bf9f0007010700000d7800090078009f
:100860008800780003010700100598006405450022
:10087000bfb097002fb09700010178008001780089
:100880000b0078008e0078001a0307000002be00fb
:100890000c01be00c8b79f000900780088007800ee
:1008a000e4b79f00f5b79f00120307000001be00e8
:1008b0006fb29700ffb297000400be00b7010700b7
:1008c00090b79f0081b79f00bfb097002fb09700ef
:1008d0000101780080017800090278008800780022
:1008e00004047800810478000800be0001030700ba
:1008f00080047800010478000c01be000b0278002f
:100900008e007800c4b79f00d1b79f004fb097000a
:10091000dfb09700f702070009027800880178002d
:1009200004047800830478000801be009c010700dd
:1009300080047800010478000fbb97000603e900eb
:10094000410033009fb597000fb797000b00780068
:100950008e00780086bf9f00c6000700000d78005b
:100960000900780088007800c20007001005980090
:1009700064054500bfb097002fb0970001017800d3
:10098000800178000b0078008e007800d902070003
:100990000002be000c01be00c8b79f00090078002d
:1009a00088007800e4b79f00f5b79f00d1020700e8
:1009b0000001be006fb29700ffb297000400be00b6
:1009c0007601070090b79f0081b79f00bfb09700e6
:1009d0002fb09700010178008001780009027800ab
:1009e0008800780004047800810478000800be00c4
:1009f000c002070080047800010478000c01be00ea
:100a00000b0278008e007800c4b79f00d1b79f001a
:100a10004fb09700dfb09700b602070009027800d8
:100a20008801780004047800830478000801be007f
:100a30005b01070080047800010478000fbb970079
:100a40000603e900bfff3b007fa897004f0778002f
:100a50004f06be004f05be004f04be006f01b1003f
:100a6000000006000a01be00030078008200780042
:100a70003d0307000006be000df0a2006aff37002c
:100a8000889fbe008a9fbe008c9fbe008e1f78008c
:100a90004400f800070f2000270288003400f80007
:100aa000811f78000f07780007f02f000338e1005e
:100ab00004003200270280004700b30027028800ac
:100ac000a301880019002000804cdd0013002000e5
:100ad00002047800800678008904d100424edd00cf
:100ae000010578000302e9000480080017000000f7
:100af0008a0546004218dd000902e900048008006a
:100b000010000000000000004620c3003b0252001d
:100b1000df35c100080440001381c200ab825200df
:100b2000264dc5003e85c400bb00cd00bb80cd0076
:100b30003a00ca002a80ca000700c9000580c9001f
:100b4000ba00cd00ba80cd000a0546000204780044
:100b50008301d0008d06e900dfff3c008e0778009e
:100b60004f0078003400f9004400f9004f07780086
:100b70004f06be004f05be004f04be000000060039
:100b8000811f7800801f7800811f780040050200d7
:100b900000000000cf0078004f007800d60502006a
:100ba000000000004f007800000006004600f8003a
:100bb0005000f800022020003202880002002800c5
:100bc000130020008019dd0002817100820288007c
:100bd0000100780001017800260020004700200075
:100be0008301e90003800800070000000110e10014
:100bf000040034001102be0092087800e2307b004d
:100c00000489be0087804000121978005000f90066
:100c10004600f90000000600821f7800849fbe0095
:100c20008a1f78004400f800040f20002402880086
:100c3000010578000601c3000080e900008008007b
:100c400003000000000000000505f0000401f100b1
:100c50003200cd000505f0001001f1003200cd009a
:100c60004400f9004f0578004f02be004f007800a5
:100c700000000600e8874700889fbe008a9fbe00ec
:100c80008c9fbe008e1f78000005be000200200071
:100c90000370240017020700800478000104780024
:100ca0006011b8000a00be008f0107000000e000dc
:100cb000370035000900780088007800b00107008f
:100cc0008b0107000005be000a00be00a901070055
:100cd0000006be000200200003f02300050207000a
:100ce0000007780081bf9f00010178000e007800a6
:100cf00082007800a2010700e0b79f00f1b79f00d3
:100d00000c01be0009027800880078000403780016
:100d1000810378000600be00a00007000004be00aa
:100d20000200200003f023000800be006e0107004f
:100d30000000e0007b0034000200200003f82300e4
:100d40000c00be0096000700690107000005be0008
:100d50008a0178000b017800030078008200780097
:100d6000f3ff2700830f5000e08f5800020034008b
:100d7000f0ff2700010020004f0778004f06be005b
:100d80004f05be004f04be008f00b10000000600fa
:100d90000900780088007800de0007005401070091
:100da0000006be000c00be00720107000005be0078
:100db00009017800880178000a00be007801070068
:100dc0000000e000090032000200200003f82300c8
:100dd0000a00be0071000700450107000006be00c2
:100de0000c00be00630107000005be0002002000e9
:100df00003f023000a00be00be01070000077800d0
:100e000081bf9f00010178000e0078008200780009
:100e10005b010700e0b79f00f1b79f000a01be0029
:100e200009027800880078000403780081037800c4
:100e30000600be00590007000004be0002002000aa
:100e400003f023000800be00270107000000e000b7
:100e5000170034000200200003f823000a00be003f
:100e60004f000700220107000006be008c01780039
:100e70000d0178000300780082007800020028004d
:100e8000f3ff2f00820f5000838f5800baff3d0000
:100e90000200be004f0778004f06be004f05be009f
:100ea0004f04be008f00b10000000600b8ff3700fd
:100eb0000200200003f02300880078000900780079
:100ec00001027800800278000400be0004010700df
:100ed0000000e000e5ff3a006fb19700ffb1970016
:100ee0008e0278000fba9700050078008400780021
:100ef0002a0007000001be0029000700fc000700cf
:100f00000000e000d9ff32000200200003f82300b7
:100f10000a00be0022000700f50007000006be0020
:100f2000d2ff37000200200003f023008800780081
:100f30000900780001027800800278000400be00f9
:100f4000e70007000000e00081ff3a006fb1970062
:100f5000ffb197008e0278000fba97000500780065
:100f6000840078000d0007000001be000c0007009f
:100f7000df0007000000e00075ff320002002000e3
:100f800003f823000c00be0005000700d80007008e
:100f90000005be006eff37000000050003f0a20050
:100fa000889fbe008a9fbe008c1f78003901070011
:100fb000400133006450e1004f0032006420e10042
:100fc0005200320003826c0007003b000905d0008c
:100fd0000306d000820f54000c065d0002003900a9
:100fe00002003200890178000306780085825500ee
:100ff00004003d000003fd008103fd008502ea00be
:101000008b854200840f720002003b0060001000dc
:10101000e08018006011b8000005eb007a28e100bc
:101020000a00390006007800c75ddd00f707b2004e
:10103000878075002d003700828171000a017800d9
:10104000610560008180d1000080d3008502e90045
:10105000f9ff3b00060440008784480002003b0083
:1010600060041400e0841c000988a300070032001b
:101070008a81710082817100610164008904d1005c
:101080000884d3008b05e800170037000978a30017
:1010900013003a000b00e000130034008b05e90058
:1010a0000804440089844c000a4474000978a300b1
:1010b0000d003a000b00e000070034008b05e9004a
:1010c0000804440089844c0001003a000b00200011
:1010d0000978a300f7ff32000001eb00020037009f
:1010e000828171000a017800af0007000cf0a700b0
:1010f00001f0a000f80037006420e10002003a008f
:10110000838f6c00f80033000801be000200be00af
:10111000f10037000001eb004a0007000400320034
:101120000200200003f8230001f0a6009cff070046
:10113000000006000081eb0022013700889fbe00fe
:101140008a9fbe008c1f7800d2000700d9003300b0
:1011500003866c006450e1002e0032006420e10040
:10116000330032006150e1002f0032006120e100c5
:101170003100320085855500eb07b00009002000e2
:1011800008042000050037000804440089844c004e
:101190000a0031000603430087834b00000153001f
:1011a00081815b00f8ff33000203be000800a0004d
:1011b0000804440089844c00f6ff3900c639dd007c
:1011c0008301730001003200130020008904d10064
:1011d0000884d3000998a300050032000800a70086
:1011e0000300a0008904d1000884d3008b05e80027
:1011f0008904d1000884d3000001eb000281d200f1
:101200006900070001f0a1000cf0a70001f0a000a8
:10121000b10037006420e100b30032000801be00d5
:101220000200be00f7ff37006120e100ae0032008f
:101230006000b800f3ff37000000200001f827002d
:10124000f0ff3700889fbe008a9fbe000003be00eb
:101250007b00070085057800828152000200200093
:101260006220e10004003a00f307b10004003500f9
:101270007718e100040035000600be0014003700b6
:101280006000b8000f003700f50f2000faff2f00b4
:101290008502d1000a85d3008301e900fcff3b00f1
:1012a0008184620000046500890f7400f2ff32003f
:1012b0008582ea000a85ea008184620000046500f4
:1012c0003900070007f0a70001f0a0000081eb0043
:1012d0000200e0004f05be004f04be000000060003
:1012e0001400200022013700f4ff2f0020013700f6
:1012f0000001be00520007000470a70003f0a10027
:101300006509b100160032000d0035006828e100c3
:1013100006003500f0ff2f00f1ff27000300e0007a
:1013200013003b0001002800000005000000400001
:10133000818048008502e900fcff3a000800370080
:10134000f88f420002003c008000eb000000050026
:101350008100d1000080d3008502e800fcff3a0044
:101360000300e00002003b0060001000e080180075
:10137000000006004f89de00820178001701370067
:101380000001eb00afff0700040032000200200064
:1013900003f8230001f0a70000ff0700000006008b
:1013a00004002000f2003700810020006180550019
:1013b0000b003d000b00200061fe2f000100e1004a
:1013c0001d00340082817100610164008904d10034
:1013d0000884d3000000e800faff3a007100200002
:1013e0006100640003007000020060000900320028
:1013f00061044400e0844c000988a5000500320027
:101400008b05e8006808e10002003a008904d10079
:101410000884d300f20f20000258e10005003d00cf
:10142000c75ddd00f907b20089807500080078000b
:10143000000006000bf827008b0078000000050074
:10144000c70ade00f107b200f50fb2000800320053
:10145000e1cf4200020032000170a000240005002c
:10146000810f7000010032000408050044000500ef
:10147000810f700002003a00140005008502e900a7
:101480000000400081c04800fcff3b000170a0004c
:10149000240005000004be00e9ff07000003be00b1
:1014a0000405be000200be00e5ff0700844f750082
:1014b000000006000200be006450e1000500360096
:1014c0006420e100020036000968a30001003a0030
:1014d0000800be000160a0004f0678004f05be0066
:1014e0004f04be0000000600f0ff2f00f1ff2700b0
:1014f000f9ff3700889fbe008a9fbe008c1f7800ce
:10150000e4ff0700ebff330003866c006450e1004a
:10151000240032006420e100270032006150e10025
:10152000220032006120e100210032008b85420060
:10153000eb07b1000134b800003ab80008044200db
:1015400089844a00013ab8000030b8008880400021
:1015500009014a0004003300000040008180480077
:10156000020149008b05e900c909dd008301700013
:101570000100320013002000c814de004814dd0012
:101580004709de001200b200c808de0008847000bf
:1015900085ff070001f0a1000cf0a70001f0a000fa
:1015a000cdff37006120e100cfff32000801be000f
:1015b0000200be00f7ff37006150e100fcff3a0077
:1015c000c9ff3700889fbe008a9fbe008c9fbe0067
:1015d000820578000004be0099ff07000800be00e5
:1015e0006420e1000700390002003a00f1ff270003
:1015f000f0ff2f000160a0001202200002408800ce
:10160000550037006120e10003003a000b00a700fd
:1016100001f823005000370001f0a1000200210072
:10162000936424002eff07000800be00040035006c
:10163000b2fd2000930c2400a70007000004be00a8
:101640000005eb000b00a6004f0dde0001f0a1002d
:101650000004be0032982f0023ea2300a5ff0700f4
:101660000001eb0003f023000b00a70003f82300a8
:101670004bfe07001eff07000000a7000a00a200a3
:101680003cff07000b00e0000300320002002000d6
:1016900003f0230041fe070001f0a2000006be0097
:1016a000020020009304240092ff07000801be00fe
:1016b0003bfe0700809fbe000c00be0022a22a0055
:1016c000d3a723008bff07004f01be0034fe0700a5
:1016d0000004be0001f0a1000200200003982300d6
:1016e000fffe07000800be00190035000001be0023
:1016f00080ff07000006be00b2c52900e362230098
:101700007cff070022222b00f3942b0024fe07000d
:101710000c01be0077ff0700e273280083c023009e
:101720001ffe07000c01be0072ff070042aa2a003c
:10173000a3e22b001afe07000c01be006dff07009c
:101740000801be006bff07000801be0014fe070081
:101750000a00a70001f0a2004f06be004f05be0020
:101760004f04be00000006000001eb0095ff3700ab
:10177000889fbe008a9fbe00841f780045ff070037
:101780004f00780011003300f0ff2f00838f6c00b2
:1017900006003b00040565000a00a70008003700aa
:1017a00009f0a6001000200008003700820f540046
:1017b000838f5c00030039001000200001003e0010
:1017c0000000200009f0a7000000ea004f05be005d
:1017d0004f04be000000e00000000600881f7800f3
:1017e000030478000300e00007003d0060001000e3
:1017f000e080180060011900e081190002003b0040
:1018000001f02d00030037000400070008f0a700d6
:1018100001f0a0004f04780000000600889fbe0081
:101820008a9fbe0000827000040271000482710071
:10183000260032000004be000200be006011b800a5
:101840006b092000950220000182cf000a003900b8
:101850000541b1000082cf00070039000541b10009
:101860000982cf00040039000541b1000882cf0091
:10187000010039000541b10005425200120032005a
:101880000a003b0082817100610164008100d10087
:101890000080d3008984d3000884d3008b05e8003e
:1018a0000442e800f7ff3a0007003700080444004c
:1018b00089844c0000004800818048008b05e900c5
:1018c0000442e900f9ff3a00b7fe07004f05be00e9
:1018d0004f04be0000000600040020000000370096
:1018e000889fbe008a9fbe008c1f78004f26dd00b7
:1018f000e8fe0700effe33006120e1004300320004
:101900006250e10041003e003e0039006420e100e9
:101910003c003200058255000f003b000402e80045
:1019200038003a00800f5300818f5b00350034008f
:101930000800be0003f0a10001f0a60003f0a00023
:101940000cf0a70096fd0700e3fe370006034300f6
:1019500087834b000c4646000005530081855b00e1
:10196000020033000a03be000c00a0000402e900dc
:10197000f6ff3b00850578000602430087824b0096
:1019800004003a006000b80009f0a70001f0a000d0
:10199000d1fe37000002520081825a000704e000a5
:1019a000040033000603430087834b008b05e900e6
:1019b000faff3700090578000604be000203be00e6
:1019c0006011b80078fe0700e00f5200e08f5a0067
:1019d0000700350002003c000c08a30004003200a0
:1019e0000601be0003f0a0000cf0a7006cfd07008c
:1019f0000a85680001f0a1000af0a70001f0a0002c
:101a0000b5fe37000800be00b3fe3700100220000c
:101a10000cf0a60000408800b3fe3700889fbe008f
:101a200000047800010078008204780088017800c2
:101a300009017800110020000e000700890f5000f6
:101a4000010032000004eb00080078004f04be00e3
:101a5000000006000000fa00e88157004fb9970027
:101a6000a1822000e0d02000350507000080fa00a8
:101a700000000600889fbe008a9fbe008c9fbe00ab
:101a80008e1f7800000678000104780002007800bc
:101a9000830478000881b900020778000200e000a2
:101aa000420032000800e000410032008205780068
:101ab000c900900069009000808f50000400390038
:101ac00009007800500007000000e0002900350000
:101ad00000402000190060000a0032000b0178006d
:101ae000a10020000c007800360007008006780076
:101af0000d00e00006003200610516000a85460070
:101b0000040037000b0578008006eb000100370069
:101b10000b05780049009000e9009000808050009b
:101b20008a8f500002003100010578008006eb002a
:101b30000a0178008c0078002c0007008a85550087
:101b4000490090000a004000c00498000d00e00029
:101b50000400320009007800d50007000000e00012
:101b600004003a000b00e000020032000a064600c2
:101b7000cfff370000802000190060000200320013
:101b800009007800ca00070000c0200019006000aa
:101b90000200320049009000e00498008b055700d5
:101ba000110009008885d800010037000000eb0013
:101bb0004f0778004f06be004f05be004f04be0021
:101bc0000000060003003700b0cf1000050032000f
:101bd0000201e900800178000200e000faff3a000b
:101be0000000050003007800000006008001780076
:101bf00002003700b15978000201e9000200e0005c
:101c0000fcff3a0000000600889fbe008a1f780093
:101c100000047800c8009000680190000000eb000c
:101c2000828f50003c003900180078002200290003
:101c300002016000e20f5100070032000120240081
:101c40000000e00001003d0001202000008c700039
:101c50000080eb0030003700020026000200600028
:101c6000820f500009003a0038009000808f500029
:101c700006003900080078008d0007008000780019
:101c80000080eb000100e00023003a001805780016
:101c900000c020000000650018003a00a804900071
:101ca0006002200008004000808f540013003a00ba
:101cb000002020003f010700200498000000e00001
:101cc00005003a0029049800490498008904e800b6
:101cd00039049800080037000a60a0000a0c780058
:101ce00040049800012020008080400031049800ca
:101cf000400c9800500c98000c0007002800900041
:101d000050049800380090006004980000002600fd
:101d1000180c70000000eb004f0578004f04be0067
:101d20000000060080f320009b003700881f780029
:101d3000c88c20001804e00003003a00f9ff0700f7
:101d400020c0b300004c78004f047800000006006b
:101d5000889fbe0000047800080078005400070047
:101d600080047800000420001800600002003200a7
:101d700028009000aa0007000000eb002004980053
:101d8000384090000004e000050035000000fb0032
:101d900009fa07000000e000010032008084eb0037
:101da000181090000000e000080032004dfa070013
:101db0000000e000010032008084eb001810900069
:101dc000970007000000eb001014980000082000a6
:101dd00018006000150032000001eb006000b80040
:101de000a38720000202d00063027a00880f52000d
:101df00005003a000000400081804800008041005a
:101e00000008eb000600370061004000e080480059
:101e10000201e800e80f5000e08f5800f0ff3a00a0
:101e2000080078007e0007000e003700000c7800e4
:101e300000c0eb0030449800600220000800400021
:101e4000200498004004980050049800400c98002a
:101e500060049800500c98007004980076004400cc
:101e6000000c9800090078004f04be000000060036
:101e7000881f78000004eb006140b800e2ff2f00eb
:101e8000f3ff2f00260307008288200062007800fd
:101e90000000e00001003200adff07000804e80088
:101ea000e80f5400f4ff3a004f04780000000600e9
:101eb000889fbe00000478000800e0000e003a0091
:101ec0008004eb008800d000a0872000610078002b
:101ed0000000e00004003200f5ff07000000e00011
:101ee00001003d008084eb000804e800e80f540086
:101ef000f4ff3a00250037000000220018006000bf
:101f00008004eb0021003200a80490000f0037008d
:101f100009015100384090000000fb008900780062
:101f2000aef907000000e00007003c002800900028
:101f30004004980060049800500c98001890a0008d
:101f40008084eb0011003700808444004801900039
:101f5000828f5400eeff3900280090004004980062
:101f60009800780002c020000281600001003a0061
:101f70003800900001e8a3000200320060049800dd
:101f800001003700500c98008004eb000900780035
:101f90004f04be0000000600010020000100e00028
:101fa00008003200010080000100e000050032005e
:101fb0008100e900010088008100d000020080005b
:101fc00000b1780000000600889fbe000004780081
:101fd0000100780082047800880178000901780007
:101fe00011002000a3fe0700890f500001003200fd
:101ff0000004eb00080078004f04be00000006005b
:102000000000fa00e88157004fb99700a182200034
:1020100040fe2000ca0307000080fa00000006000e
:102020000000e0002f003200c0017800e38f510073
:102030002c0036000308a3002a003a004146800025
:102040000100e00002003200810f50000400310066
:102050001100980040468800160037008200780082
:10206000110190000200e00002003200800f5100d8
:10207000faff39001102780084824000850f500079
:1020800018003900808f520003003a008308420094
:1020900001007800070037000200e0000300320072
:1020a00083014000830f51000e0039001200980098
:1020b00090009800900090000100e00009003200bc
:1020c00010014000828f500006003a00628c200010
:1020d0000009eb0010017800110841009100900008
:1020e0001100980000000600889fbe0000047800e0
:1020f000314680000100e00002003200010078005b
:102100000d00370041468000808c2000040037001d
:10211000910f5400250036000180e80091009000e6
:102120000100e000faff3a0010003700920f54005f
:102130001e0036000280e800100178000200e00076
:10214000faff3a001101780041468000808c20009f
:1021500004003700910f5400140036000180e8009d
:1021600091009000828f5000faff3a00794680007b
:10217000888f54000100310088047800090078003d
:10218000480007000000e00004003a00888f540077
:10219000050032008904d100f5ff370009187800e6
:1021a0009fff0700d2ff37000000eb004f04be0086
:1021b00000000600881f7800630440000800a100aa
:1021c0008000eb00800f540021003600e30f540024
:1021d00001003e004800200008007800c2ff070010
:1021e0008000eb000000e000190032009000780051
:1021f0009101780064815100880f51000300310083
:1022000011019000020878000700370008814000a3
:1022100002087800910190001301980010017800e5
:102220001109140088087800100178000000eb0004
:102230000200e00004003200920190000300e00080
:10224000010032000280e800304688008180e8000a
:10225000010078004f0478000000060002003700fb
:102260000304e0000600320000017800020078005c
:10227000b041780081cf5100f9ff3a0001003700ea
:102280000001eb00020078000000060080007800ea
:10229000010178003104e000fdff3a000000510028
:1022a00000000600800078000000eb000100e00064
:1022b000050034000100780013f90700e10f400029
:1022c00001003a000000eb0000000600fc87470018
:1022d000889fbe008a9fbe008c9fbe008e1f780024
:1022e0000006780080c5b30080cf50000a0032009d
:1022f0007740400080cf50000a0032006940400023
:1023000080cf50000b003200b089200080bf9f00ba
:10231000ae0020000a003700a288200082bf9f0084
:1023200006003700b389200083bf9f008e00200085
:1023300003003700b489200084bf9f000e012000f5
:102340003c02be002c03be000605be000404be0015
:1023500040c6b30080cf500003003200654040000b
:1023600080cf50000b003a00e00f5200e08f5a007f
:10237000e00f5b00e08f5b0006003d006000b800ee
:102380006011b80004045000858458000605590007
:1023900087855900e80f57000400320040002000f4
:1023a000f00f570038003a000100370030002000dd
:1023b000e00f5400e08f5c00e00f5d00e08f5d00f7
:1023c00004003a00dc0890008d0120000100e000cc
:1023d000060032008e00e900888060008fba970006
:1023e000e5c07800f1ef9f007d01200080007800bb
:1023f0008100e900050033008b05d1000a85d30078
:102400008984d3000884d300f9ff3700089ebe00fa
:102410000a96be00120037008d06e9008e00e90022
:10242000848060000fb99700e2c1780082fd2f0020
:102430000f01410003f17e00800078008100e90077
:10244000050033008783d1000683d3008582d30043
:102450000482d300f9ff3700049ebe000696be003a
:102460003c02be002c03be00e00f5200e08f5a0079
:10247000e00f5b00e08f5b008b0034000d00e0009c
:10248000e5ff3c00880037002c60900081c6b30057
:10249000814f50000b00320006003c000004e000b9
:1024a00008003200e6c05000814f50004e003a0054
:1024b00004003700c1c6b300814f50004a003a0003
:1024c000210037000800e00004003a005c0890009a
:1024d0008d0120000000e00006003200110009001c
:1024e0000e84d8000fb99700e2c07800f1ef9f008a
:1024f0007d012000110009000e84d8000a00370079
:10250000110009000e04d8008d06e9000e81b90003
:10251000020454008fb8970061417c0081fd2f00b8
:102520008f80400082f07e00000478000800e00008
:10253000020032000d00e000f1ff3c00cfc4de00dd
:10254000614db90025003700e00f5400e08f5c00ba
:1025500004003a005c0890008d0120000000e000bb
:10256000070032006171b9000800be006901070070
:102570008fb99700e3417800f3ef9f007d012000c1
:102580006171b9000800be00520107000b0037005e
:102590006171b9000800be003f0107008d06e90027
:1025a00000f1b900020454000fba9700e4427c0025
:1025b00084fd2f000f02420005f27e000004be00e1
:1025c000e00f5000e08f5800020032000d00e000e4
:1025d000efff3c004fcdde008a057800089ebe006c
:1025e0000a96be0030003700e00f5400e08f5c0018
:1025f000e00f5d00e08f5d0004003a005c08900091
:102600008d0120000000e000090032006172b90075
:10261000612bb9000800be000a01be00e6010700f8
:102620000fba970064427800f4ef9f007d0120000c
:102630006172b900612bb9000800be000a01be003a
:10264000d60107000d0037006172b900612bb90097
:102650000800be000a01be00db0107008d06e9008c
:1026600000f2b900040454008fba970065427c0060
:1026700085fd2f008f82420084f27e00009ebe0006
:102680000296be003c04be002c05be00e00f5400c4
:10269000e08f5c00e00f5d00e08f5d000200340021
:1026a0000d00e000e8ff3c00e80f570010003a0082
:1026b0000c1090000038a3000d003200f78f560078
:1026c00006003e0085fd2f008f824200e5c07e009f
:1026d00000c3b30080cf5000050032008d06e90032
:1026e00002c3b30081fd2f008f80400082f07e0086
:1026f00078811600120e98006c00900083fd2f0068
:102700008f8141008d80410038fd07001c0890003a
:10271000dc089000810f500006003d000080500052
:10272000000e98000c1090000040a10000169800c8
:102730000f0037000100e0000d003d008c109000fc
:10274000f4806000f08f500009003a007c0990008e
:10275000fc009000810051000c0990008280500024
:10276000008050004240a90001003400000e980093
:102770004f0778004f06be004f05be004f04be0055
:10278000cf01b100000006000400fa00889fbe00df
:102790008a9fbe008c1f7800000478000106780034
:1027a000f80d900078009000808555000808900092
:1027b00080855500180890008085550028089000f5
:1027c00080855500380890008085550048089000a5
:1027d000808555000002220090bf9f000003230067
:1027e000a0bf9f00081090000028a30015003a0029
:1027f0000b00e000130034000b0578008a04780019
:10280000e20f55000100360029002000c8019000a9
:1028100009017800ee805700580090000300010085
:10282000500498000000e0008c003200680890001e
:1028300009004000600c9800090555004240a900bd
:10284000eeff3c00780190000200e0000c00340034
:10285000c80190008c00780058009000030001002f
:10286000500498008080eb000000e0007c00320003
:10287000e80890007800900000804000600c98000c
:10288000880c90000900e000110034000905780070
:10289000e28f5400010036002a002000c801900099
:1028a0000a017800ec8057005800900003000100f6
:1028b000500498000000e0006800320068089000b2
:1028c0000a004000600c98008a845400edff370035
:1028d000180990000200e0000c003400c8019000cc
:1028e000e800900058009000030001005004980098
:1028f0008080eb000000e00059003200e808900002
:102900001808900000804000600c9800a80c90000f
:102910000900e0001100340009057800e28f54003e
:10292000010036002a002000c80190000a0178004a
:10293000ec805700580090000300010050049800fc
:102940000000e00045003200680890000a004000e6
:10295000600c98008a845400edff3700380990001d
:102960000200e0000e003400e8009000180890001b
:1029700080804000c80190005800900003000100d2
:10298000500498008080eb000000e000340032002a
:10299000e80890003808900000804000600c980023
:1029a000c80c90000900e00011003400090578000f
:1029b000e28f5400010036002a002000c801900078
:1029c0000a017800ec8057005800900003000100d5
:1029d000500498000000e0002000320068089000d9
:1029e0000a004000600c98008a845400edff370014
:1029f000081090008000eb000028a30018003200af
:102a00000b00e000160034008b0478000905780004
:102a1000e28f5400010036002a002000c801900017
:102a20000a017800ee805700580090000300010072
:102a3000500498000000e000080032006808900090
:102a40000a004000600c98008a8454004240a900ab
:102a5000eeff3c008000eb00010037008080eb00bf
:102a6000010078004f0678004f05be004f04be00fd
:102a70000080fa000000060001087800000006004f
:102a800000c0da000000060000c0da000000060006
:102a900000c0da0000000600839f68000100e0002b
:102aa00002003d0060001000e08018000300e0001c
:102ab00002003d0060011100e081190005000700df
:102ac0004f00e00002003b0060001000e0801800b2
:102ad000000006006022b800060220000000d000be
:102ae0008180d2000482d2008582d2000000a00042
:102af0000202520083825a000300310002024200a7
:102b000083824a000000a1000603e900f3ff3a00b7
:102b100000000600efff07000400be0000000600f2
:102b2000020ab900001bb9000200b800810042008f
:102b30008100430000000600889fbe008a9fbe00ff
:102b400030044200b0844a0030054b0090854b00b1
:102b50006000b1000898be000a90be000440e10089
:102b600005c8e10006d0e10007d8e100020031000d
:102b7000680040001008e8004f05be004f04be008a
:102b800000000600889fbe008a9fbe003004be0081
:102b90002005be000418540005985c0006185d006e
:102ba00007985d00110020000440e10005c8e10025
:102bb00006d0e10007d8e100010039008000eb00f9
:102bc000108810004f05be004f04be000000060034
:102bd0001200fa00889fbe008a9fbe008c9fbe0034
:102be000e0b79f00f1b79f0082bf9f0093bf9f0097
:102bf0000605be000404be000000eb00d0b79f0035
:102c0000c0b79f00b0b79f00a0b79f0090b79f00cc
:102c10000006eb005fb19700cfb097008201410042
:102c20003fb097000200e00004003d0037000700bd
:102c30007e805700c0ff0700030037003300070005
:102c40007e805700cfff0700dfb697000d00e00041
:102c50000c0035006fb29700ffb297000fbb9700d2
:102c60009fbb970010002000010020006011b800f9
:102c7000000272008182720002037300838373007a
:102c80001b0007000c06e80001042000810f56001d
:102c9000e0ff3a000d00e00004003d000802be0025
:102ca0000a03be007e805700a3ff07005fa89700bd
:102cb0000000e00005003a001fb29700afb2970095
:102cc0003fb39700cfb39700090007006fb097009c
:102cd000ffb097000fb997009fb997004f06be004d
:102ce0004f05be004f04be000080fa000000060041
:102cf0000100070000000600a4b79f00b5b79f00c1
:102d0000c6b79f00d7b79f00000006004f09de003e
:102d100082817100b3b79f004f01de0081804000c7
:102d200082807000a1b79f008fb097004f09de002e
:102d3000000040000200700090b79f007fa897003d
:102d40004f01de00818040008280700081b79f00cb
:102d50000d0007004f3ade00000040000400700044
:102d6000f0af9f00080007000402420085824a007d
:102d700006034b0087834b00dfff07000802be00fd
:102d80000a03be00000006002fb29700bfb29700f2
:102d90004fb39700dfb3970000000600881f78004c
:102da00018002000881f780089ff07008f87e9003e
:102db0004f04780000000600801feb0084ff07002e
:102dc0008f87e90000000600889fbe008a9fbe0032
:102dd000e00f5000e08f5800e00f5900e08f5900dd
:102de0000c003d006044b8006055b800000054007d
:102df00081805c0002015d0083815d00180020007d
:102e00001500070008003d00180007000004eb0053
:102e1000050037000004eb000f00070002003d0032
:102e20001200070018002000dcff07000800e00087
:102e3000060032006022b8006033b8000000520083
:102e400081805a0002015b0083815b004f05be0058
:102e50004f04be0000000600e00f5200e08f5a0051
:102e6000e00f5b00e08f5b00000006006044b800ec
:102e70006055b8000402540085825c0006035d00c2
:102e800087835d0000000600889fbe008a9fbe0009
:102e90008c1f7800e00f5000e08f5800e00f5900c1
:102ea000e08f59000d003d006044b8006055b80047
:102eb0000000540081805c0002015d0083815d00a0
:102ec0001c0020000820e10009a8e1000ab0e10090
:102ed0000bb8e1000d003d00080037000006eb00d4
:102ee000e00f5200e08f5a00e00f5b00e08f5b00c4
:102ef00006003d006044b8006055b800040254006c
:102f000085825c0006035d0087835d00aaff0700e1
:102f10000c00e000060032006022b8006033b80008
:102f20000000520081805a0002015b0083815b0037
:102f30004f0678004f05be004f04be00000006009b
:102f40006200fa00889fbe008a1f780000057800a2
:102f500081047800020478008300780080f92f0053
:102f60000f004000c4fe07009a979f00a9979f009a
:102f70000000eb00b09f9f001885fb008a04fb0057
:102f80000a05ea004f55de0050022000808f5400f1
:102f90000d003200e10f55000b003a000a017800e5
:102fa000880078002f9097009f9197000300010000
:102fb000a0979f000000e0008e0032003f9897002d
:102fc0000000e800b09f9f000a0444005002200067
:102fd000808f5400040032000900e000e6ff3a0050
:102fe0003f989700840037000000eb00909f9f00ff
:102ff000809f9f00f0979f00e0979f00d0979f00d1
:10300000c0979f0007003700018c2000010050008e
:1030100000004000418b200061007800df9897009d
:1030200001007000d09f9f00880478000904780098
:10303000384578008a00fb00008c200087fc0700e0
:103040000000e000f0ff3a00a1c2b300814f55003c
:103050000e003a00cf8897000180e900c08f9f00e2
:1030600010007800c09f9f000000e00005003d00b8
:103070000000ea00c09f9f005f9897000020a0001a
:10308000d09f9f000904e8000f003700c09f9f00f9
:103090000000eb0005003700f2ff2700820f500010
:1030a000020032006a01b900028040000904780081
:1030b00088047800b900fb000103b100e98f5000db
:1030c000f5ff3600c09f9f00e0c2b300984f10008c
:1030d000020032000080eb0019003700a0c2b300ec
:1030e000d84f100007003a00cf8897000180e90010
:1030f000c08f9f0010007800a09f9f000804e80088
:10310000100037000000eb00a09f9f0088007800af
:1031100005003700f3ff2700830f50000200320044
:103120006a02b900040041000104780088007800b8
:103130003101fb000203b100e90f5100f5ff360039
:10314000a09f9f00984478008900fb00c08a20005f
:1031500042fc07000000e000020032000804e80022
:10316000010037008044eb00c97f9f0080c6b30098
:1031700080cf540004003a0098cf14000a003a00af
:103180006640500006003700c0c6b30080cf540030
:1031900005003a0098cf140003003a006540400053
:1031a000c07f9f000804e8001801fb00e3fb2f002c
:1031b0008f81410081f92f008f804000a0f92f00fe
:1031c0000f004000100007000000e00009003a0076
:1031d000e1fb2f008f804000a0f92f000f0040007e
:1031e00069fd07000000e000020035000804e80067
:1031f00061ff37000080eb004f0578004f04be00f0
:103200000080fa0000000600889fbe008a1f780038
:1032100000047800e0c6b300804f5100c1003200c6
:1032200015003c006b405000804f510024003200dc
:103230000a003c0070405000804f5100fa003200fc
:1032400065404000804f51006800320050c2b3001a
:10325000804f51000b013a000701370040c6b30010
:10326000804f51001b00320065404000804f5100ec
:1032700004013a001700370030c7b300804f5100f7
:10328000e900320007003c0064405000804f5100cc
:10329000560032000040e800804f5100f9003a002b
:1032a000d300370050c7b300804f51004f003200a9
:1032b00063404000804f5100f2003a004b0037005d
:1032c0001181e900820878007800900012417800ae
:1032d000ea00370028609000c4c6b300844f500055
:1032e00007003a001102780064005200800878005c
:1032f0001002be004fabde008603780011003700dd
:1033000014c7b300844f500003003200a4c6b300ba
:10331000844f500006003a00110278006800520005
:10332000800878003002be002003be000500370090
:103330001180e9008008780010027800cfa2de003a
:10334000612bb900049cbe000694be00286090006a
:1033500081c6b300814f50000d00320021c6b3007a
:10336000814f500004003a000402fb00cfa2de00af
:10337000612bb9000800370041c7b300814f5000ee
:1033800003003200e6c04000814f500004003a00c4
:10339000cfa2de00612bb900049cbe000694be00e3
:1033a0003802be002803be0078009000d1c2b300ee
:1033b000e00f5200e08f5a00e00f5b00e08f5b00ef
:1033c00008003500881090000118a30002003200a8
:1033d000b1c2b300030037000108a3004c00320063
:1033e00001c2b30081717800470037002860900067
:1033f000c4c6b300844f500006003a0011027800a2
:1034000064005200800878001002be006033b800eb
:103410001100370014c7b300844f5000030032007e
:10342000a4c6b300844f500006003a001102780091
:1034300068005200800878003002be002003be0001
:10344000050037001180e90080087800100278003c
:103450008002eb006033b800049cbe000694be00fe
:103460002860900081c6b300814f50000d003200eb
:1034700021c6b300814f500004003a000482fb00d3
:103480008002eb006033b8000800370041c7b3008a
:10349000814f500003003200e6c04000814f5000d1
:1034a00004003a008002eb006033b800049cbe00c8
:1034b0000694be00081090000038a30014003200eb
:1034c0003802be002803be00e00f5200e08f5a0011
:1034d000e00f5b00e08f5b000d00320080c7b3009f
:1034e000804f51000300320080c5b300804f51006f
:1034f00007003a007800900001c3b30081717800a2
:103500000000e800827178000000e8007004980074
:103510007800900080814100630498008240780028
:103520003e00370028619000c3c6b3001180e90057
:10353000834f5100220032000a003c00e4c15100d8
:10354000834f51002500320083c1e800834f5100b2
:1035500013003200e8c15100834f51001e003a00b1
:103560000a00370043c7b300834f51001b003200ed
:10357000e6c14100834f510018003200e9c15100fb
:10358000834f510014003a0005003700800878008e
:1035900010007800485c900008487800410037002f
:1035a0008008780010007800680a9000cfa2de0042
:1035b000612bb9000498be000690be0039003700a8
:1035c000800878001000780068099000cf91de0034
:1035d0000288be00330037001180e90080087800bf
:1035e00010007800680c9000080878002d00370063
:1035f0001180e9008008780010027800cfa2de0078
:10360000612bb900049cbe000694be0078009000b7
:10361000808141006304980081c7b30008007800ee
:103620002afb07001f0037001180e900800878009e
:10363000100578006a049800d80c90000900e0009a
:1036400004003d000a00780010fb070080047800a9
:1036500007003700090178008000eb000a007800bd
:1036600058f907000000e000010032008a04500011
:10367000190c98000b0037007800900082717800d8
:103680000600370078009000808141000204e000cd
:1036900001003a0052c2b300824978000000e800fd
:1036a000700498000000eb004f0578004f04be0046
:0436b0000000060010
:020000040000fa
:1036b4005245000053450000540a00000d0000006c
:1036c4005477000069640000646c00006520000009
:1036d40046610000637400006f72000073200000f4
:1036e400006900006e200000524100004d200000df
:1036f400582d00007370000061630000650a00002b
:103704000d000000412000002d2000005b2500007a
:1037140030330000755d00002e520000203d000093
:103724002025000030340000582000003d20000017
:1037340025200000356400000a0d0000004200004e
:10374400202d0000205b00002530000033750000b0
:103754005d2e0000522000003d20000025300000b6
:1037640034580000203d00002025000020350000d2
:10377400640a00000d000000432000002d2000001a
:103784005b25000030330000755d00002e52000000
:10379400203d0000202500003034000058200000a7
:1037a4003d20000025200000356400000a0d0000c3
:0437b4000000000011
:020000040000fa
:1037b8000000fa001800070041000700a0b5290022
:1037c800801f78000cfa07008f87e90020b62900cf
:1037d800801f780008fa07008f87e90030b72900b2
:1037e800801f780004fa07008f87e9000001eb00ca
:1037f8000190200070002000e2f307001200200072
:1038080001a0200070002000def307004b00070035
:1038180070000700ffff37000000fa009002200048
:10382800303a8800213a8000f0f32f0000806000d1
:10383800203a8800213a800000fe2f0000806000b6
:10384800203a88004827ef0040a7a900120020006e
:1038580080072000a10920003374200080497800e7
:103868008149780082497800120020006004200015
:103878007105200023742000804978008149780070
:103888008249780000000000113a800000002700fb
:103898008080600000002100808f5000faff3a000d
:1038a80000000000113a8000000220000080600043
:1038b8000000e000fbff32000080fa000000060074
:1038c8000000fa000080eb0060198800c862a900b7
:1038d800c842a8002135800000fe2f00008060004b
:1038e8000010a0002035880011368000f00f2e004f
:1038f80080806000003020000100700010368800d1
:103908002002a9000111800090ff2f0000806000b4
:103918000011880020a2a9002062a900e007200069
:103928004011880021e2a8002342a80010002000ce
:10393800504688000080fa00000006000200fa00e5
:103948000000eb00000f78001c0037001e00780014
:10395800c200dd0020402400008040008000eb0011
:1039680001087800000220009e007800808f500037
:103978000b003400f00520009e007800808f500076
:1039880007003c001e007800c200dd000040240053
:10399800008040000100240001087800060037007c
:1039a8001e007800c200dd000040240000804000b6
:1039b8008000eb00010878001e0fe800f0072000e7
:1039c8009e007800808f5000e0ff34000080fa00ed
:1039d800000006000200fa000000eb00000f78006b
:1039e800120037001e007800c200dd0000402400ed
:1039f80000804000900078001e0078004201dd0041
:103a0800004024000000410010007800811f780069
:103a1800801f78009e1f780040b82900801f78001a
:103a28000af80700e88757001e0fe800f007200093
:103a38009e007800808f5000eaff340003f02f00ca
:103a48000290200001402400700020000af40700c2
:103a5800014024007000200052f4070002402400b6
:103a6800014024000008200069f407000000eb0072
:103a7800000f7800120037001e007800c200dd0039
:103a88000040240000804000900078001e0078006c
:103a98004201dd00004024000000410010007800d1
:103aa800811f7800801f78009e1f780010ba2900b7
:103ab800801f7800e5f70700e88757001e0fe80029
:103ac800f00720009e007800808f5000eaff340045
:103ad80003f02f0002a02000014024007000200005
:103ae80025f407000000eb00000f780012003700f3
:103af8001e007800c200dd00004024000080400065
:103b0800900078001e0078004201dd00004024008b
:103b18000000410010007800811f7800801f7800a5
:103b28009e1f7800e0bb2900801f7800c7f70700b8
:103b3800e88757001e0fe800f00720009e00780075
:103b4800808f5000eaff34000080fa000000060071
:020000040000fa
:103b5800004400000002000000000000000900000e
:103b68000002000000000000ca0800000200000077
:103b78000200000001000000000800000200000030
:103b88000000000002080000880000000200000099
:103b9800010000000028080029082800082808005b
:103ba800280828000818080000000000000000008d
:103bb80000000000000000000000000000000000fd
:103bc8000000000000020800010150000851080030
:103bd8005008500008500800500840000800000035
:103be80000000000000000000000000000000000cd
:103bf80000000000000000000000020008020200af
:103c080078087900087808007808780008780800ab
:103c1800680800000000000000000000000000002c
:103c2800000000000000000000000000000000008c
:103c380002082a00085208000000000000000000e6
:103c48000000000000000000cc0800000200000096
:103c580000000000ce080000020000000200000082
:103c680004000000c6080000040000000000000076
:103c78008a080000220000000200000030313200f3
:103c88003334350036373800394142004344450063
:103c980046003000313233003435360037383900c9
:103ca800616263006465660000000000d0080000df
:103cb8000200000000000000ac0800001a0000002c
:103cc80002000000686a6c00747a4c000000010071
:103cd800000200000400080000100000000020009e
:0c3ce8002b2d2300300000000000000025
:020000040000fa
:0200000401f009
:04000c008000000070
:020000040000fa
:0200000401f009
:040010006700000085
:020000040000fa
:0200000401f009
:040014005f00000089
:00000001FF
