:020000040000fa
:080000000002040000000000f2
:020000040000fa
:04000800d80200001a
:020000040000fa
:04000c00d802000016
:020000040000fa
:04001000d802000012
:020000040000fa
:04001400d80200000e
:020000040000fa
:04001800d80200000a
:020000040000fa
:04001c00d802000006
:020000040000fa
:04002000d802000002
:020000040000fa
:04002400d8020000fe
:020000040000fa
:04002800d8020000fa
:020000040000fa
:04002c00d8020000f6
:020000040000fa
:04003000d8020000f2
:020000040000fa
:04003400d8020000ee
:020000040000fa
:04003800d8020000ea
:020000040000fa
:04003c00d8020000e6
:020000040000fa
:04004000d8020000e2
:020000040000fa
:04004400d8020000de
:020000040000fa
:04004800d8020000da
:020000040000fa
:04004c00d8020000d6
:020000040000fa
:04005000d8020000d2
:020000040000fa
:04005400d8020000ce
:020000040000fa
:04005800d8020000ca
:020000040000fa
:04005c00d8020000c6
:020000040000fa
:04006000d8020000c2
:020000040000fa
:04006400d8020000be
:020000040000fa
:04006800d8020000ba
:020000040000fa
:04006c00d8020000b6
:020000040000fa
:04007000d8020000b2
:020000040000fa
:04007400d8020000ae
:020000040000fa
:04007800d8020000aa
:020000040000fa
:04007c00d8020000a6
:020000040000fa
:04008000d8020000a2
:020000040000fa
:04008400d80200009e
:020000040000fa
:04008800d80200009a
:020000040000fa
:04008c00d802000096
:020000040000fa
:04009000d802000092
:020000040000fa
:04009400d80200008e
:020000040000fa
:04009800d80200008a
:020000040000fa
:04009c00d802000086
:020000040000fa
:0400a000d802000082
:020000040000fa
:0400a400d80200007e
:020000040000fa
:0400a800d80200007a
:020000040000fa
:0400ac00d802000076
:020000040000fa
:0400b000d802000072
:020000040000fa
:0400b400d80200006e
:020000040000fa
:0400b800d80200006a
:020000040000fa
:0400bc00d802000066
:020000040000fa
:0400c000d802000062
:020000040000fa
:0400c400d80200005e
:020000040000fa
:0400c800d80200005a
:020000040000fa
:0400cc00d802000056
:020000040000fa
:0400d000d802000052
:020000040000fa
:0400d400d80200004e
:020000040000fa
:0400d800d80200004a
:020000040000fa
:0400dc00d802000046
:020000040000fa
:0400e000d802000042
:020000040000fa
:0400e400d80200003e
:020000040000fa
:0400e800d80200003a
:020000040000fa
:0400ec00d802000036
:020000040000fa
:0400f000d802000032
:020000040000fa
:0400f400d80200002e
:020000040000fa
:0400f800d80200002a
:020000040000fa
:0400fc00d802000026
:020000040000fa
:04010000d802000021
:020000040000fa
:04010400d80200001d
:020000040000fa
:04010800d802000019
:020000040000fa
:04010c00d802000015
:020000040000fa
:04011000d802000011
:020000040000fa
:04011400d80200000d
:020000040000fa
:04011800d802000009
:020000040000fa
:04011c00d802000005
:020000040000fa
:04012000d802000001
:020000040000fa
:04012400d8020000fd
:020000040000fa
:04012800d8020000f9
:020000040000fa
:04012c00d8020000f5
:020000040000fa
:04013000d8020000f1
:020000040000fa
:04013400d8020000ed
:020000040000fa
:04013800d8020000e9
:020000040000fa
:04013c00d8020000e5
:020000040000fa
:04014000d8020000e1
:020000040000fa
:04014400d8020000dd
:020000040000fa
:04014800d8020000d9
:020000040000fa
:04014c00d8020000d5
:020000040000fa
:04015000d8020000d1
:020000040000fa
:04015400d8020000cd
:020000040000fa
:04015800d8020000c9
:020000040000fa
:04015c00d8020000c5
:020000040000fa
:04016000d8020000c1
:020000040000fa
:04016400d8020000bd
:020000040000fa
:04020800d802000018
:020000040000fa
:04020c00d802000014
:020000040000fa
:04021000d802000010
:020000040000fa
:04021400d80200000c
:020000040000fa
:04021800d802000008
:020000040000fa
:04021c00d802000004
:020000040000fa
:04022000d802000000
:020000040000fa
:04022400d8020000fc
:020000040000fa
:04022800d8020000f8
:020000040000fa
:04022c00d8020000f4
:020000040000fa
:04023000d8020000f0
:020000040000fa
:04023400d8020000ec
:020000040000fa
:04023800d8020000e8
:020000040000fa
:04023c00d8020000e4
:020000040000fa
:04024000d8020000e0
:020000040000fa
:04024400d8020000dc
:020000040000fa
:04024800d8020000d8
:020000040000fa
:04024c00d8020000d4
:020000040000fa
:04025000d8020000d0
:020000040000fa
:04025400d8020000cc
:020000040000fa
:04025800d8020000c8
:020000040000fa
:04025c00d8020000c4
:020000040000fa
:04026000d8020000c0
:020000040000fa
:04026400d8020000bc
:020000040000fa
:04026800d8020000b8
:020000040000fa
:04026c00d8020000b4
:020000040000fa
:04027000d8020000b0
:020000040000fa
:04027400d8020000ac
:020000040000fa
:04027800d8020000a8
:020000040000fa
:04027c00d8020000a4
:020000040000fa
:04028000d8020000a0
:020000040000fa
:04028400d80200009c
:020000040000fa
:04028800d802000098
:020000040000fa
:04028c00d802000094
:020000040000fa
:04029000d802000090
:020000040000fa
:04029400d80200008c
:020000040000fa
:04029800d802000088
:020000040000fa
:04029c00d802000084
:020000040000fa
:0402a000d802000080
:020000040000fa
:0402a400d80200007c
:020000040000fa
:0402a800d802000078
:020000040000fa
:0402ac00d802000074
:020000040000fa
:0402b000d802000070
:020000040000fa
:0402b400d80200006c
:020000040000fa
:0402b800d802000068
:020000040000fa
:0402bc00d802000064
:020000040000fa
:0402c000d802000060
:020000040000fa
:0402c400d80200005c
:020000040000fa
:0402c800d802000058
:020000040000fa
:0402cc00d802000054
:020000040000fa
:0402d000d802000050
:020000040000fa
:0402d400d80200004c
:020000040000fa
:0402d800d802000048
:020000040000fa
:0402dc00d802000044
:020000040000fa
:0402e000d802000040
:020000040000fa
:0402e400d80200003c
:020000040000fa
:0402e800d802000038
:020000040000fa
:0402ec00d802000034
:020000040000fa
:0402f000d802000030
:020000040000fa
:0402f400d80200002c
:020000040000fa
:0402f800d802000028
:020000040000fa
:0402fc00d802000024
:020000040000fa
:04030000d80200001f
:020000040000fa
:04030400d80200001b
:020000040000fa
:04030800d802000017
:020000040000fa
:04030c00d802000013
:020000040000fa
:04031000d80200000f
:020000040000fa
:04031400d80200000b
:020000040000fa
:04031800d802000007
:020000040000fa
:04031c00d802000003
:020000040000fa
:04032000d8020000ff
:020000040000fa
:04032400d8020000fb
:020000040000fa
:04032800d8020000f7
:020000040000fa
:04032c00d8020000f3
:020000040000fa
:04033000d8020000ef
:020000040000fa
:04033400d8020000eb
:020000040000fa
:04033800d8020000e7
:020000040000fa
:04033c00d8020000e3
:020000040000fa
:04034000d8020000df
:020000040000fa
:04034400d8020000db
:020000040000fa
:04034800d8020000d7
:020000040000fa
:04034c00d8020000d3
:020000040000fa
:04035000d8020000cf
:020000040000fa
:04035400d8020000cb
:020000040000fa
:04035800d8020000c7
:020000040000fa
:04035c00d8020000c3
:020000040000fa
:04036000d8020000bf
:020000040000fa
:04036400d8020000bb
:020000040000fa
:100400006f8020000eff23000e0188000000000016
:10041000000020000000e000020032000001200087
:100420002002880014000700620107000000e000bd
:1004300003003a00408b2100010020000200370039
:100440000000200001002000810f70000100320038
:1004500014000700000020000000e000020032004d
:100460000000020000000000281c02000000000044
:100470000040da000000fe004440a900404b20008c
:100480000000e0000300320000002000a00188000e
:100490004440a800000006008a1f78008b1f7800e7
:1004a0000000060091018800800478000000eb0045
:1004b0001a003700e284440032a0b4009905ba0063
:1004c000e284440032a0b4009906ba00e2844400f9
:1004d00032a0b4000006eb00476fde00fd07b2005b
:1004e000636ce10003003a00ebff07000000eb0043
:1004f0000a003700606ce10004003a00005deb0088
:100500008b05e900fdff3e00040037006168e10053
:10051000010032000086eb000b00070019c7ba008b
:100520001905ba000e04e00003003a000a00e000da
:10053000e0ff3a0000000600fe07b2009e018800be
:100540008a047800f5ff3700395dba008b05e900b1
:100550000c003200295dba008b05e900080032006a
:100560000c00e00003003a00e284440032a0b40032
:10057000f5ff370019ddba008b05e900faff3a00f4
:100580008904e800e184440032a0b40000000600c1
:10059000dc04040000000000060704000000000066
:1005a0000000040000000000b2070400000000008a
:1005b0000040da000000fe000a00fa0011002000ee
:1005c000b1bf9f00c0bf9f006a805700130507009e
:1005d0004fb897000080fa00000006000a00fa00f9
:1005e000e20f500034003e0040268200e10f500030
:1005f00003003200e20f500011003a000c003700f7
:10060000032220000300e00001003a000040da006d
:100610002002e200020035002822ef0021e2a800bb
:100620002342ab000d003a002342a8000b00370024
:10063000032320000300e00001003a000040da003c
:100640003002e200020035003822ef0031e2a8005b
:100650003342ab0001003a003342a8008201780027
:100660000b0037003102fb00e10f500004003a009c
:100670002322ab00feff3a0024118800030037005c
:100680003322ab00feff3a00a41188008301e90089
:100690000300e000f3ff3a00e10f500003003a00ce
:1006a0002302ab00feff32000b0037003302ab0029
:1006b000feff32000800370033002000b3bf9f0068
:1006c000c0bf9f00d1bf9f00e2bf9f006a8057005c
:1006d000d40407006fb99700020078000080fa0088
:1006e000000006000a00fa0051002000b1bf9f0080
:1006f000c0bf9f006a805700cc0407005fb8970016
:100700000080fa0000000600889fbe008004780088
:10071000702682000000e00004003a000e0007008e
:100720000084eb000000e00008003500782682001d
:100730000900e0000500320009004400060007003f
:100740000000e00001003d000084eb00080078009c
:100750004f04be0000000600800078000100e000a9
:1007600003003a000000200070268a000000050007
:100770000080eb0002002000828f500002003e004b
:1007800071268a000000eb0000000600b10278002c
:100790000009eb000002e90007003400b101780015
:1007a0000328e10002003c008302780004095000a5
:1007b0000402e900f9ff3c00050078000000060093
:1007c000889fbe008a9fbe008c9fbe008e1f78004f
:1007d0004400f800070f2000270288003400f800ca
:1007e000811f78000f07780007f02f000338e10021
:1007f00004003200270280004700b300270288006f
:10080000a301880019002000804cdd0013002000a7
:1008100002047800800678008904d100424edd0091
:10082000010578000302e9000480080017000000b9
:100830008a0546004218dd000902e900048008002c
:1008400010000000000000004620c3003b025200e0
:10085000df35c100080440001381c200ab825200a2
:10086000264dc5003e85c400bb00cd00bb80cd0039
:100870003a00ca002a80ca000700c9000580c900e2
:10088000ba00cd00ba80cd000a0546000204780007
:100890008301d0008d06e900dfff3c008e07780061
:1008a0004f0078003400f9004400f9004f07780049
:1008b0004f06be004f05be004f04be0000000600fc
:1008c000811f7800801f7800811f7800e0030200fc
:1008d00000000000cf0078004f007800760402008e
:1008e000000000004f007800000006004600f800fd
:1008f0005000f80002202000320288000200280088
:10090000130020008019dd0002817100820288003e
:100910000100780001017800260020004700200037
:100920008301e90003800800070000000110e100d6
:10093000040034001102be0092087800e2307b000f
:100940000489be0087804000121978005000f90029
:100950004600f90000000600821f7800849fbe0058
:100960008a1f78004400f800040f20002402880049
:10097000010578000601c3000080e900008008003e
:1009800003000000000000000505f0000401f10074
:100990003200cd000505f0001001f1003200cd005d
:1009a0004400f9004f0578004f02be004f00780068
:1009b0000000060000000500889fbe0000047800cb
:1009c000010078008204780088017800090178002d
:1009d000110020000e000700890f500001003200b6
:1009e0000004eb00080078004f04be000000060081
:1009f0000000fa00e88157004fb9970081422400b7
:100a0000c04d2000350507000080fa0000000600f8
:100a1000889fbe008a9fbe008c9fbe008e1f7800fc
:100a20000006780001047800020078008304780052
:100a30000881b900020778000200e000420032009d
:100a40000800e0004100320082057800c9009000f3
:100a500069009000808f5000040039000900780080
:100a6000500007000000e000290035000040200091
:100a7000190060000a0032000b017800a10020007c
:100a80000c00780036000700800678000d00e000ba
:100a900006003200610516000a8546000400370092
:100aa0000b0578008006eb00010037000b0578008d
:100ab00049009000e9009000808050008a8f50002b
:100ac00002003100010578008006eb000a01780081
:100ad0008c0078002c0007008a85550049009000a2
:100ae0000a004000c00498000d00e000040032003d
:100af00009007800d50007000000e00004003a007b
:100b00000b00e000020032000a064600cfff37006b
:100b10000080200019006000020032000900780007
:100b2000ca00070000c02000190060000200320067
:100b300049009000e00498008b055700110009005f
:100b40008885d800010037000000eb004f077800cf
:100b50004f06be004f05be004f04be000000060059
:100b600003003700b0cf1000050032000201e90099
:100b7000800178000200e000faff3a000000050062
:100b800003007800000006008001780002003700b2
:100b9000b15978000201e9000200e000fcff3a00d0
:100ba00000000600889fbe008a1f780000047800bd
:100bb000c8009000680190000000eb00828f500098
:100bc0003c00390018007800220029000201600072
:100bd000e20f510007003200012024000000e00075
:100be00001003d0001202000008c70000080eb001f
:100bf000300037000200260002006000820f500023
:100c000009003a0038009000808f5000060039003b
:100c1000080078008d000700800078000080eb005d
:100c20000100e00023003a001805780000c0200011
:100c30000000650018003a00a8049000600220003f
:100c400008004000808f540013003a00002020006c
:100c50003f010700200498000000e00005003a0072
:100c600029049800490498008904e8003904980090
:100c7000080037000a60a0000a0c780040049800c1
:100c8000012020008080400031049800400c980032
:100c9000500c98000c0007002800900050049800a9
:100ca000380090006004980000002600180c7000c6
:100cb0000000eb004f0578004f04be000000060066
:100cc000607020009b003700881f7800a84c24002b
:100cd0001804e00003003a00f9ff070020c0b30049
:100ce000004c78004f04780000000600889fbe008a
:100cf00000047800080078005400070080047800a1
:100d0000000420001800600002003200280090005b
:100d1000aa0007000000eb00200498003840900073
:100d20000004e000050035000000fb0022fe070083
:100d30000000e000010032008084eb0018109000f9
:100d40000000e0000800320066fe07000000e0003e
:100d5000010032008084eb0018109000970007001b
:100d60000000eb001014980000082000180060003c
:100d7000150032000001eb006000b800834724003a
:100d80000202d00063027a00880f520005003a0088
:100d90000000400081804800008041000008eb0016
:100da0000600370061004000e08048000201e800d2
:100db000e80f5000e08f5800f0ff3a00080078007c
:100dc0007e0007000e003700000c780000c0eb002a
:100dd0003044980060022000080040002004980081
:100de0004004980050049800400c9800600498005b
:100df000500c98007004980076004400000c980095
:100e0000090078004f04be0000000600881f78002b
:100e10000004eb006140b800e2ff2f00f3ff2f0059
:100e20002603070062482400620078000000e0000a
:100e300001003200adff07000804e800e80f54008d
:100e4000f4ff3a004f04780000000600889fbe00bf
:100e5000000478000800e0000e003a008004eb0077
:100e60008800d00080472400610078000000e00086
:100e700004003200f5ff07000000e00001003d0023
:100e80008084eb000804e800e80f5400f4ff3a0007
:100e90002500370000002200180060008004eb00ed
:100ea00021003200a80490000f0037000901510012
:100eb000384090000000fb0089007800c7fd070063
:100ec0000000e00007003c0028009000400498006b
:100ed00060049800500c98001890a0008084eb00eb
:100ee000110037008084440048019000828f540034
:100ef000eeff390028009000400498009800780028
:100f000002c020000281600001003a003800900019
:100f100001e8a300020032006004980001003700dd
:100f2000500c98008004eb00090078004f04be00cc
:100f300000000600010020000100e000080032006f
:100f4000010080000100e000050032008100e9009e
:100f5000010088008100d0000200800000b178000c
:100f600000000600889fbe000004780001007800a1
:100f700082047800880178000901780011002000bf
:100f8000a3fe0700890f5000010032000004eb00af
:100f9000080078004f04be00000006000000fa00c0
:100fa000e88157004fb9970081422400207b200040
:100fb000ca0307000080fa00000006000000e000fd
:100fc0002f003200c0017800e38f51002c00360062
:100fd0000308a3002a003a00312682000100e00045
:100fe00002003200810f500004003100110098000f
:100ff00030268a0016003700820078001101900028
:101000000200e00002003200800f5100faff3900b8
:101010001102780084824000850f500018003900ca
:10102000808f520003003a008308420001007800dc
:10103000070037000200e000030032008301400097
:10104000830f51000e0039001200980090009800a4
:10105000900090000100e000090032001001400003
:10106000828f500006003a00424c24000009eb0039
:1010700010017800110841009100900011009800c3
:1010800000000600889fbe00000478002126820030
:101090000100e00002003200010078000d0037007e
:1010a00031268200604c240004003700910f540068
:1010b000250036000180e800910090000100e0006a
:1010c000faff3a0010003700920f54001e0036005d
:1010d0000280e800100178000200e000faff3a0008
:1010e0001101780031268200604c24000400370092
:1010f000910f5400140036000180e8009100900028
:10110000828f5000faff3a0069268200888f5400cf
:1011100001003100880478000900780048000700c9
:101120000000e00004003a00888f540005003200ff
:101130008904d100f5ff3700091878009fff0700e8
:10114000d2ff37000000eb004f04be000000060095
:10115000881f7800630440000800a1008000eb00b5
:10116000800f540021003600e30f540001003e00c0
:101170004800200008007800c2ff07008000eb0054
:101180000000e00019003200900078009101780022
:1011900064815100880f510003003100110190005b
:1011a0000208780007003700088140000208780034
:1011b00091019000130198001001780011091400aa
:1011c00088087800100178000000eb000200e000c1
:1011d00004003200920190000300e00001003200a0
:1011e0000280e80020268a008180e8000100780063
:1011f0004f04780000000600020037000304e000fe
:10120000060032000001780002007800b04178004a
:1012100081cf5100f9ff3a00010037000001eb00d7
:1012200002007800000006008000780001017800cc
:101230003104e000fdff3a0000005100000006000c
:10124000800078000000eb000100e00005003400a1
:10125000010078002cfd0700e10f400001003a007a
:101260000000eb0000000600fc874700889fbe00de
:101270008a9fbe008c9fbe008e1f780000067800fb
:1012800080c5b30080cf50000a0032007740400094
:1012900080cf50000a0032006940400080cf5000eb
:1012a0000b0032009049240080bf9f00ae00200058
:1012b0000a0037008248240082bf9f0006003700e2
:1012c0009349240083bf9f008e0020000300370055
:1012d0009449240084bf9f000e0120003c02be0000
:1012e0002c03be000605be000404be0040c6b300c9
:1012f00080cf5000030032006540400080cf500096
:101300000b003a00e00f5200e08f5a00e00f5b0044
:10131000e08f5b0006003d006000b8006011b8007f
:10132000040450008584580006055900878559003b
:10133000e80f57000400320040002000f00f570073
:1013400038003a000100370030002000e00f540060
:10135000e08f5c00e00f5d00e08f5d0004003a006c
:10136000dc0890008d0120000100e0000600320042
:101370008e00e900888060008fba9700e5c0780091
:10138000f1ef9f007d012000800078008100e900de
:10139000050033008b05d1000a85d3008984d30072
:1013a0000884d300f9ff3700089ebe000a96be00ed
:1013b000120037008d06e9008e00e900848060008d
:1013c0000fb99700e2c1780082fd2f000f014100a4
:1013d00003f17e00800078008100e9000500330001
:1013e0008783d1000683d3008582d3000482d30093
:1013f000f9ff3700049ebe000696be003c02be0008
:101400002c03be00e00f5200e08f5a00e00f5b009b
:10141000e08f5b008b0034000d00e000e5ff3c0036
:10142000880037002c60900081c6b300814f5000c7
:101430000b00320006003c000004e000080032000f
:10144000e6c05000814f50004e003a0004003700c3
:10145000c1c6b300814f50004a003a002100370056
:101460000800e00004003a005c0890008d012000b4
:101470000000e00006003200110009000e84d800d0
:101480000fb99700e2c07800f1ef9f007d012000c6
:10149000110009000e84d8000a003700110009006d
:1014a0000e04d8008d06e9000e81b9000204540034
:1014b0008fb8970061417c0081fd2f008f80400034
:1014c00082f07e00000478000800e0000200320094
:1014d0000d00e000f1ff3c00cfc4de00614db9001b
:1014e00025003700e00f5400e08f5c0004003a0054
:1014f0005c0890008d0120000000e0000700320031
:101500006171b9000800be00690107008fb997003a
:10151000e3417800f3ef9f007d0120006171b90085
:101520000800be00520107000b0037006171b900ce
:101530000800be003f0107008d06e90000f1b90078
:10154000020454000fba9700e4427c0084fd2f008f
:101550000f02420005f27e000004be00e00f5000c2
:10156000e08f5800020032000d00e000efff3c0069
:101570004fcdde008a057800089ebe000a96be00a8
:1015800030003700e00f5400e08f5c00e00f5d009a
:10159000e08f5d0004003a005c0890008d0120009f
:1015a0000000e000090032006172b900612bb9004f
:1015b0000800be000a01be00e60107000fba97004e
:1015c00064427800f4ef9f007d0120006172b90051
:1015d000612bb9000800be000a01be00d601070059
:1015e0000d0037006172b900612bb9000800be0020
:1015f0000a01be00db0107008d06e90000f2b90018
:10160000040454008fba970065427c0085fd2f00ca
:101610008f82420084f27e00009ebe000296be00d1
:101620003c04be002c05be00e00f5400e08f5c00bf
:10163000e00f5d00e08f5d00020034000d00e0006f
:10164000e8ff3c00e80f570010003a000c10900033
:101650000038a3000d003200f78f560006003e0050
:1016600085fd2f008f824200e5c07e0000c3b300dd
:1016700080cf5000050032008d06e90002c3b300a0
:1016800081fd2f008f80400082f07e00788116005f
:10169000120e98006c00900083fd2f008f81410096
:1016a0008d80410038fd07001c089000dc08900088
:1016b000810f500006003d0000805000000e980091
:1016c0000c1090000040a100001698000f00370099
:1016d0000100e0000d003d008c109000f4806000df
:1016e000f08f500009003a007c099000fc00900047
:1016f000810051000c099000828050000080500051
:101700004240a90001003400000e98004f07780005
:101710004f06be004f05be004f04be00cf01b10012
:10172000000006000400fa00889fbe008a9fbe00e9
:101730008c1f78000004780001067800f80d9000f6
:10174000780090008085550008089000808555003d
:101750001808900080855500280890008085550065
:101760003808900080855500480890008085550015
:101770000002220090bf9f0000032300a0bf9f0033
:10178000081090000028a30015003a000b00e000ac
:10179000130034000b0578008a047800e20f55002e
:1017a0000100360029002000c801900009017800de
:1017b000ee8057005800900003000100500498008c
:1017c0000000e0008c003200680890000900400032
:1017d000600c9800090555004240a900eeff3c004e
:1017e000780190000200e0000c003400c801900075
:1017f0008c0078005800900003000100500498000d
:101800008080eb000000e0007c003200e8089000df
:101810007800900000804000600c9800880c9000d8
:101820000900e0001100340009057800e28f54003f
:10183000010036002a002000c80190000a0178004b
:10184000ec805700580090000300010050049800fd
:101850000000e00068003200680890000a004000c4
:10186000600c98008a845400edff3700180990003e
:101870000200e0000c003400c8019000e800900075
:101880005800900003000100500498008080eb0095
:101890000000e00059003200e808900018089000ad
:1018a00000804000600c9800a80c90000900e00047
:1018b0001100340009057800e28f54000100360061
:1018c0002a002000c80190000a017800ec8057002f
:1018d0005800900003000100500498000000e00050
:1018e00045003200680890000a004000600c980033
:1018f0008a845400edff3700380990000200e000b0
:101900000e003400e800900018089000808040002d
:10191000c801900058009000030001005004980096
:101920008080eb000000e00034003200e808900006
:101930003808900000804000600c9800c80c9000af
:101940000900e0001100340009057800e28f54001e
:10195000010036002a002000c80190000a0178002a
:10196000ec805700580090000300010050049800dc
:101970000000e00020003200680890000a004000eb
:10198000600c98008a845400edff37000810900026
:101990008000eb000028a300180032000b00e000dc
:1019a000160034008b04780009057800e28f54009b
:1019b000010036002a002000c80190000a017800ca
:1019c000ee8057005800900003000100500498007a
:1019d0000000e00008003200680890000a004000a3
:1019e000600c98008a8454004240a900eeff3c003d
:1019f0008000eb00010037008080eb0001007800e0
:101a00004f0678004f05be004f04be000080fa006c
:101a100000000600010878000000060000c0da009f
:101a20000000060000c0da000000060000c0da0076
:101a300000000600839f68000100e00002003d00f6
:101a400060001000e08018000300e00002003d008c
:101a500060011100e0811900050007004f00e0005f
:101a600002003b0060001000e0801800000006004b
:101a70006022b800060220000000d0008180d20061
:101a80000482d2008582d2000000a000020252002f
:101a900083825a00030031000202420083824a001e
:101aa0000000a1000603e900f3ff3a000000060071
:101ab000efff07000400be0000000600020ab900a4
:101ac000001bb9000200b800810042008100430001
:101ad00000000600889fbe008a9fbe0030044200be
:101ae000b0844a0030054b0090854b006000b10087
:101af0000898be000a90be000440e10005c8e1005d
:101b000006d0e10007d8e100020031006800400083
:101b10001008e8004f05be004f04be00000006009c
:101b2000889fbe008a9fbe003004be002005be0014
:101b30000418540005985c0006185d0007985d00c5
:101b4000110020000440e10005c8e10006d0e100da
:101b500007d8e100010039008000eb001088100078
:101b60004f05be004f04be00000006001200fa0040
:101b7000889fbe008a9fbe008c9fbe00e0b79f007a
:101b8000f1b79f0082bf9f0093bf9f000605be0074
:101b90000404be000000eb00d0b79f00c0b79f0058
:101ba000b0b79f00a0b79f0090b79f000006eb0062
:101bb0005fb19700cfb09700820141003fb097001e
:101bc0000200e00004003d00370007007e8057005f
:101bd000c0ff070003003700330007007e80570076
:101be000cfff0700dfb697000d00e0000c003500c6
:101bf0006fb29700ffb297000fbb97009fbb970093
:101c000010002000010020006011b80000027200e6
:101c10008182720002037300838373001b0007003c
:101c20000c06e80001042000810f5600e0ff3a0096
:101c30000d00e00004003d000802be000a03be00e3
:101c40007e805700a3ff07005fa897000000e00018
:101c500005003a001fb29700afb297003fb397005c
:101c6000cfb39700090007006fb09700ffb097004f
:101c70000fb997009fb997004f06be004f05be00f1
:101c80004f04be000080fa000000060001000700bb
:101c900000000600a4b79f00b5b79f00c6b79f001d
:101ca000d7b79f00000006004f09de008281710057
:101cb000b3b79f004f01de0081804000828070003a
:101cc000a1b79f008fb097004f09de0000004000d1
:101cd0000200700090b79f007fa897004f01de00c0
:101ce000818040008280700081b79f000d00070056
:101cf0004f3ade000000400004007000f0af9f008b
:101d0000080007000402420085824a0006034b00d7
:101d100087834b00dfff07000802be000a03be00f6
:101d2000000006002fb29700bfb297004fb3970094
:101d3000dfb3970000000600881f7800180020001d
:101d4000881f780089ff07008f87e9004f0478001b
:101d500000000600801feb0084ff07008f87e9006a
:101d600000000600889fbe008a9fbe00e00f500062
:101d7000e08f5800e00f5900e08f59000c003d0043
:101d80006044b8006055b8000000540081805c00d9
:101d900002015d0083815d0018002000150007002e
:101da00008003d00180007000004eb0005003700a4
:101db0000004eb000f00070002003d0012000700c6
:101dc00018002000dcff07000800e00006003200d9
:101dd0006022b8006033b8000000520081805a00d1
:101de00002015b0083815b004f05be004f04be0013
:101df00000000600e00f5200e08f5a00e00f5b0089
:101e0000e08f5b00000006006044b8006055b80039
:101e10000402540085825c0006035d0087835d0038
:101e200000000600889fbe008a9fbe008c1f7800bd
:101e3000e00f5000e08f5800e00f5900e08f59008c
:101e40000d003d006044b8006055b800000054002b
:101e500081805c0002015d0083815d001c00200028
:101e60000820e10009a8e1000ab0e1000bb8e10098
:101e70000d003d00080037000006eb00e00f5200a7
:101e8000e08f5a00e00f5b00e08f5b0006003d0032
:101e90006044b8006055b8000402540085825c00bc
:101ea00006035d0087835d00aaff07000c00e000c9
:101eb000060032006022b8006033b8000000520013
:101ec00081805a0002015b0083815b004f0678002d
:101ed0004f05be004f04be00000006006200fa007d
:101ee000889fbe008a1f7800000578008104780072
:101ef000020478008300780080f92f000f00400072
:101f0000c4fe07009a979f00a9979f000000eb006e
:101f1000b09f9f001885fb008a04fb000a05ea00b9
:101f20004f55de0050022000808f54000d0032001b
:101f3000e10f55000b003a000a0178008800780094
:101f40002f9097009f91970003000100a0979f009a
:101f50000000e0008e0032003f9897000000e8008b
:101f6000b09f9f000a04440050022000808f54005c
:101f7000040032000900e000e6ff3a003f989700b5
:101f8000840037000000eb00909f9f00809f9f001f
:101f9000f0979f00e0979f00d0979f00c0979f0009
:101fa00007003700e14b2400010050000000400012
:101fb000214b240061007800df9897000100700039
:101fc000d09f9f0088047800090478003845780085
:101fd0008a00fb00e04b240087fc07000000e000c3
:101fe000f0ff3a00a1c2b300814f55000e003a0045
:101ff000cf8897000180e900c08f9f001000780013
:10200000c09f9f000000e00005003d000000ea00c6
:10201000c09f9f005f9897000020a000d09f9f0066
:102020000904e8000f003700c09f9f000000eb008c
:1020300005003700f2ff2700820f50000200320037
:102040006a01b90002804000090478008804780021
:10205000b900fb000103b100e98f5000f5ff360025
:10206000c09f9f00e0c2b300984f100002003200f2
:102070000080eb0019003700a0c2b300d84f100059
:1020800007003a00cf8897000180e900c08f9f00c9
:1020900010007800a09f9f000804e800100037009f
:1020a0000000eb00a09f9f0088007800050037002b
:1020b000f3ff2700830f5000020032006a02b900cc
:1020c0000400410001047800880078003101fb0021
:1020d0000203b100e90f5100f5ff3600a09f9f00f9
:1020e000984478008900fb00a04a240042fc0700c5
:1020f0000000e000020032000804e80001003700a0
:102100008044eb00c97f9f0080c6b30080cf54009d
:1021100004003a0098cf14000a003a0066405000cc
:1021200006003700c0c6b30080cf540005003a0057
:1021300098cf140003003a0065404000c07f9f0024
:102140000804e8001801fb00e3fb2f008f81410029
:1021500081f92f008f804000a0f92f000f00400070
:10216000100007000000e00009003a00e1fb2f002a
:102170008f804000a0f92f000f00400069fd07008c
:102180000000e000020035000804e80061ff3700ad
:102190000080eb004f0578004f04be000080fa007d
:1021a00000000600889fbe008a1f780000047800a7
:1021b000e0c6b300804f5100c100320015003c0062
:1021c0006b405000804f5100240032000a003c0058
:1021d00070405000804f5100fa00320065404000ce
:1021e000804f51006800320050c2b300804f510050
:1021f0000b013a000701370040c6b300804f510081
:102200001b00320065404000804f510004013a003d
:102210001700370030c7b300804f5100e90032008b
:1022200007003c0064405000804f510056003200cf
:102230000040e800804f5100f9003a00d300370019
:1022400050c7b300804f51004f0032006340400040
:10225000804f5100f2003a004b0037001181e90035
:10226000820878007800900012417800ea00370078
:1022700028609000c4c6b300844f500007003a00a5
:102280001102780064005200800878001002be003d
:102290004fabde00860378001100370014c7b3008f
:1022a000844f500003003200a4c6b300844f500096
:1022b00006003a0011027800680052008008780099
:1022c0003002be002003be00050037001180e90087
:1022d0008008780010027800cfa2de00612bb900e0
:1022e000049cbe000694be002860900081c6b30026
:1022f000814f50000d00320021c6b300814f5000c5
:1023000004003a000402fb00cfa2de00612bb900fa
:102310000800370041c7b300814f5000030032006e
:10232000e6c04000814f500004003a00cfa2de001a
:10233000612bb900049cbe000694be003802be00aa
:102340002803be0078009000d1c2b300e00f520015
:10235000e08f5a00e00f5b00e08f5b000800350063
:10236000881090000118a30002003200b1c2b3002f
:10237000030037000108a3004c00320001c2b30083
:10238000817178004700370028609000c4c6b30010
:10239000844f500006003a00110278006400520099
:1023a000800878001002be006033b80011003700ca
:1023b00014c7b300844f500003003200a4c6b3001a
:1023c000844f500006003a00110278006800520065
:1023d000800878003002be002003be0005003700f0
:1023e0001180e90080087800100278008002eb007c
:1023f0006033b800049cbe000694be0028609000c4
:1024000081c6b300814f50000d00320021c6b300d9
:10241000814f500004003a000482fb008002eb0070
:102420006033b8000800370041c7b300814f500047
:1024300003003200e6c04000814f500004003a0023
:102440008002eb006033b800049cbe000694be001e
:10245000081090000038a300140032003802be00bb
:102460002803be00e00f5200e08f5a00e00f5b002f
:10247000e08f5b000d00320080c7b300804f510039
:102480000300320080c5b300804f510007003a00be
:102490007800900001c3b300817178000000e8006b
:1024a000827178000000e8007004980078009000c5
:1024b0008081410063049800824078003e0037002c
:1024c00028619000c3c6b3001180e900834f51001a
:1024d000220032000a003c00e4c15100834f510049
:1024e0002500320083c1e800834f51001300320001
:1024f000e8c15100834f51001e003a000a00370026
:1025000043c7b300834f51001b003200e6c14100b6
:10251000834f510018003200e9c15100834f510030
:1025200014003a0005003700800878001000780099
:10253000485c900008487800410037008008780027
:1025400010007800680a9000cfa2de00612bb9006d
:102550000498be000690be0039003700800878005d
:102560001000780068099000cf91de000288be005c
:10257000330037001180e9008008780010007800ef
:10258000680c9000080878002d0037001180e900e1
:102590008008780010027800cfa2de00612bb9001d
:1025a000049cbe000694be0078009000808141002b
:1025b0006304980081c7b300080078002afb070075
:1025c0001f0037001180e9008008780010057800ae
:1025d0006a049800d80c90000900e00004003d0057
:1025e0000a00780010fb070080047800070037001d
:1025f000090178008000eb000a00780058f9070014
:102600000000e000010032008a045000190c98001c
:102610000b003700780090008271780006003700c8
:1026200078009000808141000204e00001003a003f
:1026300052c2b300824978000000e800700498009c
:102640000000eb004f0578004f04be0000000600bc
:020000040000fa
:10280000ff7f000000000000f67f0000dcfc0000fd
:10281000d97f0000b8f90000a77f000095f60000fe
:10282000627f000074f300000a7f000055f0000092
:102830009d7e000038ed00001e7e00001eea0000b4
:102840008a7d000007e70000e47c0000f4e300005c
:102850002a7c0000e6e000005d7b0000dcdd00007b
:102860007d7a0000d8da00008a790000d9d700000c
:1028700084780000e1d400006c770000efd1000004
:102880004276000004cf00000575000021cc000056
:10289000b673000046c900005572000073c6000000
:1028a000e3700000a9c300005f6f0000e9c00000f2
:1028b000ca6d000032be0000246c000085bb000021
:1028c0006e6a0000e3b80000a76800004cb6000084
:1028d000cf660000c0b30000e864000040b1000013
:1028e000f2620000ccae0000ec60000065ac0000bd
:1028f000d75e00000aaa0000b45c0000bda700007b
:10290000825a00007ea50000435800004ca300003e
:10291000f655000029a100009b530000149f000001
:10292000345100000e9d0000c04e0000189b0000b6
:10293000404c000031990000b44900005997000054
:102940001d470000929500007b440000dc930000ce
:10295000ce41000036920000173f0000a190000019
:10296000573c00001d8f00008d390000ab8d00002a
:10297000ba3600004a8c0000df330000fb8a0000fa
:10298000fc300000be890000112e00009488000079
:102990001f2b00007c87000027280000768600009f
:1029a000282500008385000024220000a384000065
:1029b0001a1f0000d68300000b1c00001c830000bf
:1029c000f918000076820000e2150000e3810000a3
:1029d000c812000063810000ab0f0000f780000008
:1029e0008c0c00009e8000006b09000059800000e4
:1029f0004806000028800000240300000a80000030
:102a00000000000000800000dcfc00000a800000e4
:102a1000b8f900002880000095f6000059800000f9
:102a200074f300009e80000055f00000f780000065
:102a300038ed0000638100001eea0000e381000021
:102a400007e7000076820000f5e300001c83000029
:102a5000e6e00000d6830000dcdd0000a384000077
:102a6000d8da000083850000d9d700007686000000
:102a7000e1d400007c870000efd1000094880000c2
:102a800004cf0000be89000021cc0000fb8a0000ba
:102a900046c900004a8c000073c60000ab8d0000e0
:102aa000a9c300001d8f0000e9c00000a190000034
:102ab00032be00003692000085bb0000dc930000af
:102ac000e3b80000939500004cb600005a97000050
:102ad000c0b300003199000040b10000189b000015
:102ae000ccae00000e9d000065ac0000149f0000fd
:102af0000aaa000029a10000bda700004ca3000005
:102b00007ea500007ea500004ca30000bda700002c
:102b100029a100000aaa0000149f000065ac000073
:102b20000e9d0000ccae0000189b000040b10000dc
:102b300031990000c0b300005a9700004cb6000065
:102b400093950000e3b80000dc93000085bb000013
:102b50003692000032be0000a1900000e9c00000e3
:102b60001d8f0000a9c30000ab8d000073c60000dc
:102b70004a8c000046c90000fb8a000021cc0000fe
:102b8000bf89000004cf000094880000efd100004e
:102b90007c870000e1d4000076860000d9d70000d1
:102ba00083850000d8da0000a3840000dcdd00008b
:102bb000d6830000e6e000001c830000f5e300007f
:102bc0007682000007e70000e38100001eea0000b3
:102bd0006381000038ed0000f780000055f0000030
:102be0009e80000074f300005980000095f60000fc
:102bf00028800000b8f900000a800000dcfc00001a
:102c0000ff7f000000000000f67f000024030000aa
:102c1000d97f000048060000a77f00006b09000074
:102c2000627f00008c0c00000a7f0000ab0f0000e8
:102c30009d7e0000c81200001e7e0000e21500000c
:102c40008a7d0000f9180000e47c00000c1c0000e4
:102c50002a7c00001a1f00005d7b00002422000077
:102c60007d7a0000282500008a79000027280000ce
:102c7000847800001f2b00006c770000112e0000ec
:102c800042760000fc30000005750000df330000d4
:102c9000b6730000ba360000557200008d3900008e
:102ca000e3700000573c00005f6f0000173f00001a
:102cb000ca6d0000ce410000246c00007b4400007f
:102cc0006e6a00001d470000a7680000b4490000bc
:102cd000cf660000404c0000e8640000c04e0000d9
:102ce000f262000034510000ec6000009b530000d1
:102cf000d75e0000f6550000b45c000043580000a9
:102d0000825a0000825a000043580000b45c000060
:102d1000f6550000d75e00009b530000ec600000f9
:102d200034510000f2620000c04e0000e864000070
:102d3000404c0000cf660000b4490000a7680000c6
:102d40001d4700006e6a00007b440000246c0000f8
:102d5000ce410000ca6d0000173f00005f6f000009
:102d6000573c0000e37000008d39000055720000f0
:102d7000ba360000b6730000df33000005750000ae
:102d8000fc30000042760000112e00006c7700003d
:102d90001f2b000084780000272800008a7900009b
:102da000282500007d7a0000242200005d7b0000c1
:102db0001a1f00002a7c00000b1c0000e47c0000ad
:102dc000f91800008a7d0000e21500001d7e000059
:102dd000c81200009d7e0000ab0f0000097f0000bc
:102de0008c0c0000627f00006b090000a77f0000d0
:102df00048060000d87f000024030000f67f000092
:102e000000000000ff7f0000dcfc0000f67f0000f7
:102e1000b8f90000d87f000095f60000a77f0000f9
:102e200074f30000627f000055f00000097f00008d
:102e300038ed00009d7e00001eea00001d7e0000af
:102e400007e700008a7d0000f5e30000e47c000055
:102e5000e6e000002a7c0000dcdd00005d7b000075
:102e6000d8da00007d7a0000d9d700008a79000006
:102e7000e1d4000084780000efd100006c770000fe
:102e800004cf00004276000021cc00000575000050
:102e900046c90000b673000073c6000055720000fa
:102ea000a9c30000e3700000e9c000005f6f0000ec
:102eb00032be0000ca6d000085bb0000246c00001b
:102ec000e3b800006d6a00004cb60000a668000080
:102ed000c0b30000cf66000040b10000e86400000d
:102ee000ccae0000f262000065ac0000ec600000b7
:102ef0000aaa0000d75e0000bda70000b45c000075
:102f00007ea50000825a00004ca300004358000038
:102f100029a10000f6550000149f00009b530000fb
:102f20000e9d000034510000189b0000c04e0000b0
:102f300031990000404c00005a970000b44900004d
:102f4000939500001d470000dc9300007b440000c7
:102f500036920000ce410000a1900000173f000013
:102f60001d8f0000573c0000ab8d00008d39000024
:102f70004a8c0000ba360000fb8a0000df330000f4
:102f8000bf890000fc30000094880000112e000072
:102f90007c8700001f2b0000768600002728000099
:102fa0008385000028250000a3840000242200005f
:102fb000d68300001a1f00001c8300000b1c0000b9
:102fc00076820000f9180000e3810000e21500009d
:102fd00063810000c8120000f7800000ab0f000002
:102fe0009e8000008c0c0000598000006b090000de
:102ff00028800000480600000a800000240300002a
:103000005245000053450000540a00000d00000026
:103010005477000069640000646c000065200000c3
:1030200046610000637400006f72000073200000ae
:10303000006900006e200000707200006f670000e1
:10304000726100006d2000006d6500006d6f000072
:10305000727900000a0d000000410000202d0000e0
:10306000205b000025300000337500005d2e00005d
:10307000522000003d2000002530000034580000a0
:10308000203d00002025000020350000640a0000db
:103090000d000000422000002d2000005b250000f4
:1030a00030330000755d00002e520000203d00000e
:1030b0002025000030340000582000003d20000092
:1030c00025200000356400000a0d000000430000c8
:1030d000202d0000205b000025300000337500002b
:1030e0005d2e0000522000003d2000002530000031
:1030f00034580000203d000020250000203500004d
:10310000640a00000d0000000a0d00007065000058
:10311000616b00004672000065710000756500007b
:103120006e63000079420000696e0000203d0000df
:1031300020250000640a00000d00000070650000fa
:10314000616b00004672000065710000756500004b
:103150006e630000792000003d200000256400001f
:083160000a0d00000000000050
:020000040000fa
:103168000008000006000000000000000040000009
:103178000004000002000000ff7fff007fff7f00c7
:10318800ff7fff007f018000018001008001800037
:103198000180ff007fff7f00ff7fff007fff7f0030
:1031a80001800100800180000180010080ff7f0014
:1031b800ff7fff007fff7f00ff7f0100800180000d
:1031c8000180010080018000ff7fff007fff7f00fa
:1031d800ff7fff007f0180000180010080018000e7
:1031e8000180ff007fff7f00ff7fff007fff7f00e0
:1031f80001800100800180000180010080ff7f00c4
:10320800ff7fff007fff7f00ff7f010080018000bc
:103218000180010080018000ff7fff007fff7f00a9
:10322800ff7fff007f018000018001008001800096
:103238000180ff007fff7f00ff7fff007fff7f008f
:1032480001800100800180000180010080ff7f0073
:10325800ff7fff007fff7f00ff7f0100800180006c
:103268000180010080018000ff7fff007fff7f0059
:10327800ff7fff007f018000018001008001800046
:103288000180ff007fff7f00ff7fff007fff7f003f
:1032980001800100800180000180010080ff7f0023
:1032a800ff7fff007fff7f00ff7f0100800180001c
:1032b8000180010080018000ff7fff007fff7f0009
:1032c800ff7fff007f0180000180010080018000f6
:1032d8000180ff007fff7f00ff7fff007fff7f00ef
:1032e80001800100800180000180010080ff7f00d3
:1032f800ff7fff007fff7f00ff7f010080018000cc
:103308000180010080018000ff7fff007fff7f00b8
:10331800ff7fff007f0180000180010080018000a5
:103328000180ff007fff7f00ff7fff007fff7f009e
:1033380001800100800180000180010080ff7f0082
:10334800ff7fff007fff7f00ff7f0100800180007b
:103358000180010080018000ff7fff007fff7f0068
:10336800ff7fff007f018000018001008001800055
:103378000180ff007fff7f00ff7fff007fff7f004e
:1033880001800100800180000180010080ff7f0032
:10339800ff7fff007fff7f00ff7f0100800180002b
:1033a8000180010080018000ff7fff007fff7f0018
:1033b800ff7fff007f018000018001008001800005
:1033c8000180ff007fff7f00ff7fff007fff7f00fe
:1033d80001800100800180000180010080ff7f00e2
:1033e800ff7fff007fff7f00ff7f010080018000db
:1033f8000180010080018000ff7fff007fff7f00c8
:10340800ff7fff007f0180000180010080018000b4
:103418000180ff007fff7f00ff7fff007fff7f00ad
:103428000180000000000000000000000000000013
:103438000000000000000000000000000000000084
:103448000000000000000000000000000000000074
:103458000000000000000000000000000000000064
:103468000000000000000000000000000000000054
:1036d800c8440000020000000200000001000000d1
:1036e8000044000088000000020000000100000003
:1036f8000026440027442600442644002644260089
:103708004416440000000000000000000000000013
:1037180000000000000000000000000000000000a1
:103728000002080001014e00444f44004e444e0080
:10373800444e44004e443e00440000000000000097
:103748000000000000000000000000000000000071
:103758000000000000000200080202007644770022
:10376800447644007644760044764400664400007b
:103778000000000000000000000000000000000041
:1037880000000000000000000000000000442800c5
:103798004450440000000000000000000000000049
:1037a80000000000ca440000020000000000000001
:1037b800cc440000020000000200000004000000e9
:1037c800c444000004000000000000008844000019
:1037d800220000000200000030313200333435008e
:1037e800363738003941420043444500460030002e
:1037f80031323300343536003738390061626300be
:103808006465660000000000ce440000020000006d
:1038180000000000aa4400001a0000000200000096
:10382800686a6c00747a4c00000001000002000015
:103838000400080000100000000020002b2d2300c9
:08384800300000000000000048
:020000040000fa
:103850000000fa001000070039000700008029006e
:10386000801f7800cdf507008f87e9008080290050
:10387000801f7800c9f507008f87e9009081290033
:10388000801f7800c5f507008f87e9004b0007000f
:103890007d000700ffff37000000fa0090022000c3
:1038a000303a8800213a8000f0f32f000080600059
:1038b000203a8800213a800000fe2f00008060003e
:1038c000203a88004827ef0040a7a90012002000f6
:1038d00080072000a109200033742000804978006f
:1038e000814978008249780012002000600420009d
:1038f00071052000237420008049780081497800f8
:103900008249780000000000113a80000000270082
:103910008080600000002100808f5000faff3a0094
:1039200000000000113a80000002200000806000ca
:103930000000e000fbff32000080fa0000000600fb
:103940000000fa000080eb0060198800c862a9003e
:10395000c842a8002135800000fe2f0000806000d2
:103960000010a0002035880011368000f00f2e00d6
:103970008080600000302000010070001036880058
:103980002002a9000111800090ff2f00008060003c
:103990000011880020a2a9002062a900e0072000f1
:1039a0004011880021e2a8002342a8001000200056
:1039b00040268a000080fa00000006000400fa0099
:1039c000f00f2000000f7800f0072000100798008b
:1039d000280037001e009000c200dd000000240017
:1039e00000804000100078008080d1001e00780028
:1039f0004201dd00000024000000410001087800c1
:103a00001e007800c200dd0020002400008040007d
:103a10008000eb00010878001e00e9009e00900085
:103a20008100e900c208dd000181e80001002400f6
:103a300081004100910078008180d1004201dd00c9
:103a40000000240000004100010878001e00e90089
:103a5000c200dd0020002400008040008000eb0058
:103a6000010878001e8fe9001e0090000000e900a8
:103a7000100798001e0078000000e000d5ff3c0011
:103a80000080fa00000006000200fa000000eb00cf
:103a9000000f7800120037001e007800c200dd0021
:103aa0000000240000804000900078001e00780094
:103ab0004201dd00000024000000410010007800f9
:103ac000811f7800801f78009e1f7800d082290017
:103ad000801f7800c6f30700e88757001e0fe80034
:103ae000f00f20009e007800808f5000eaff340025
:103af000000020008000780000402900810178004b
:103b00000001780001002400800020002cf3070051
:103b1000010024008000200074f30700020024004c
:103b200001002400001020008bf307000280200019
:103b3000010024000008200014f307000140800069
:103b4000700220000088b90000007800cf80de00fd
:103b500010408800214088000000eb00000f780032
:103b6000120037001e007800c200dd0000002400b3
:103b700000804000900078001e0078004201dd00c7
:103b8000000024000000410010007800811f780030
:103b9000801f78009e1f7800a0842900801f780075
:103ba00093f30700e88757001e0fe800f00f20008e
:103bb0009e007800808f5000eaff34000000200053
:103bc0008000780000602900810178000001780001
:103bd000010024008000200039f307000000eb0002
:103be000000f78000c0037001e007800c200dd00d6
:103bf000000024000080400010007800c800dd00b4
:103c00001e0078004201dd00000024000000410099
:103c1000010878001e0fe800f00f20009e007800d9
:103c2000808f5000f0ff34000000eb00000f7800a0
:103c3000120037001e007800c200dd0000002400e2
:103c400000804000900078001e0078004201dd00f6
:103c5000000024000000410010007800811f78005f
:103c6000801f78009e1f780070862900801f7800d2
:103c70005ff30700e88757001e0fe800f00f2000f1
:103c80009e007800808f5000eaff340000408000e2
:103c9000801f780040882900801f780054f30700b7
:103ca000e487570010408000214080000000780029
:103cb000801f7800e0892900801f78004cf30700fe
:0c3cc000e48757000080fa0000000600b6
:020000040000fa
:0200000401f009
:04000c008000000070
:020000040000fa
:0200000401f009
:040010006700000085
:020000040000fa
:0200000401f009
:040014005f00000089
:00000001FF
